{
  "contractName": "PaySystem",
  "abi": [
    {
      "inputs": [],
      "stateMutability": "nonpayable",
      "type": "constructor"
    },
    {
      "anonymous": false,
      "inputs": [
        {
          "indexed": true,
          "internalType": "address",
          "name": "account",
          "type": "address"
        },
        {
          "indexed": true,
          "internalType": "address",
          "name": "operator",
          "type": "address"
        },
        {
          "indexed": false,
          "internalType": "bool",
          "name": "approved",
          "type": "bool"
        }
      ],
      "name": "ApprovalForAll",
      "type": "event"
    },
    {
      "anonymous": false,
      "inputs": [
        {
          "indexed": true,
          "internalType": "address",
          "name": "previousOwner",
          "type": "address"
        },
        {
          "indexed": true,
          "internalType": "address",
          "name": "newOwner",
          "type": "address"
        }
      ],
      "name": "OwnershipTransferred",
      "type": "event"
    },
    {
      "anonymous": false,
      "inputs": [
        {
          "indexed": true,
          "internalType": "address",
          "name": "operator",
          "type": "address"
        },
        {
          "indexed": true,
          "internalType": "address",
          "name": "from",
          "type": "address"
        },
        {
          "indexed": true,
          "internalType": "address",
          "name": "to",
          "type": "address"
        },
        {
          "indexed": false,
          "internalType": "uint256[]",
          "name": "ids",
          "type": "uint256[]"
        },
        {
          "indexed": false,
          "internalType": "uint256[]",
          "name": "values",
          "type": "uint256[]"
        }
      ],
      "name": "TransferBatch",
      "type": "event"
    },
    {
      "anonymous": false,
      "inputs": [
        {
          "indexed": true,
          "internalType": "address",
          "name": "operator",
          "type": "address"
        },
        {
          "indexed": true,
          "internalType": "address",
          "name": "from",
          "type": "address"
        },
        {
          "indexed": true,
          "internalType": "address",
          "name": "to",
          "type": "address"
        },
        {
          "indexed": false,
          "internalType": "uint256",
          "name": "id",
          "type": "uint256"
        },
        {
          "indexed": false,
          "internalType": "uint256",
          "name": "value",
          "type": "uint256"
        }
      ],
      "name": "TransferSingle",
      "type": "event"
    },
    {
      "anonymous": false,
      "inputs": [
        {
          "indexed": false,
          "internalType": "string",
          "name": "value",
          "type": "string"
        },
        {
          "indexed": true,
          "internalType": "uint256",
          "name": "id",
          "type": "uint256"
        }
      ],
      "name": "URI",
      "type": "event"
    },
    {
      "inputs": [
        {
          "internalType": "address",
          "name": "account",
          "type": "address"
        },
        {
          "internalType": "uint256",
          "name": "id",
          "type": "uint256"
        }
      ],
      "name": "balanceOf",
      "outputs": [
        {
          "internalType": "uint256",
          "name": "",
          "type": "uint256"
        }
      ],
      "stateMutability": "view",
      "type": "function",
      "constant": true
    },
    {
      "inputs": [
        {
          "internalType": "address[]",
          "name": "accounts",
          "type": "address[]"
        },
        {
          "internalType": "uint256[]",
          "name": "ids",
          "type": "uint256[]"
        }
      ],
      "name": "balanceOfBatch",
      "outputs": [
        {
          "internalType": "uint256[]",
          "name": "",
          "type": "uint256[]"
        }
      ],
      "stateMutability": "view",
      "type": "function",
      "constant": true
    },
    {
      "inputs": [
        {
          "internalType": "address",
          "name": "account",
          "type": "address"
        },
        {
          "internalType": "address",
          "name": "operator",
          "type": "address"
        }
      ],
      "name": "isApprovedForAll",
      "outputs": [
        {
          "internalType": "bool",
          "name": "",
          "type": "bool"
        }
      ],
      "stateMutability": "view",
      "type": "function",
      "constant": true
    },
    {
      "inputs": [],
      "name": "owner",
      "outputs": [
        {
          "internalType": "address",
          "name": "",
          "type": "address"
        }
      ],
      "stateMutability": "view",
      "type": "function",
      "constant": true
    },
    {
      "inputs": [],
      "name": "renounceOwnership",
      "outputs": [],
      "stateMutability": "nonpayable",
      "type": "function"
    },
    {
      "inputs": [
        {
          "internalType": "address",
          "name": "from",
          "type": "address"
        },
        {
          "internalType": "address",
          "name": "to",
          "type": "address"
        },
        {
          "internalType": "uint256[]",
          "name": "ids",
          "type": "uint256[]"
        },
        {
          "internalType": "uint256[]",
          "name": "amounts",
          "type": "uint256[]"
        },
        {
          "internalType": "bytes",
          "name": "data",
          "type": "bytes"
        }
      ],
      "name": "safeBatchTransferFrom",
      "outputs": [],
      "stateMutability": "nonpayable",
      "type": "function"
    },
    {
      "inputs": [
        {
          "internalType": "address",
          "name": "from",
          "type": "address"
        },
        {
          "internalType": "address",
          "name": "to",
          "type": "address"
        },
        {
          "internalType": "uint256",
          "name": "id",
          "type": "uint256"
        },
        {
          "internalType": "uint256",
          "name": "amount",
          "type": "uint256"
        },
        {
          "internalType": "bytes",
          "name": "data",
          "type": "bytes"
        }
      ],
      "name": "safeTransferFrom",
      "outputs": [],
      "stateMutability": "nonpayable",
      "type": "function"
    },
    {
      "inputs": [
        {
          "internalType": "address",
          "name": "operator",
          "type": "address"
        },
        {
          "internalType": "bool",
          "name": "approved",
          "type": "bool"
        }
      ],
      "name": "setApprovalForAll",
      "outputs": [],
      "stateMutability": "nonpayable",
      "type": "function"
    },
    {
      "inputs": [
        {
          "internalType": "bytes4",
          "name": "interfaceId",
          "type": "bytes4"
        }
      ],
      "name": "supportsInterface",
      "outputs": [
        {
          "internalType": "bool",
          "name": "",
          "type": "bool"
        }
      ],
      "stateMutability": "view",
      "type": "function",
      "constant": true
    },
    {
      "inputs": [
        {
          "internalType": "address",
          "name": "newOwner",
          "type": "address"
        }
      ],
      "name": "transferOwnership",
      "outputs": [],
      "stateMutability": "nonpayable",
      "type": "function"
    },
    {
      "inputs": [
        {
          "internalType": "uint256",
          "name": "",
          "type": "uint256"
        }
      ],
      "name": "uri",
      "outputs": [
        {
          "internalType": "string",
          "name": "",
          "type": "string"
        }
      ],
      "stateMutability": "view",
      "type": "function",
      "constant": true
    },
    {
      "inputs": [
        {
          "internalType": "address",
          "name": "account",
          "type": "address"
        },
        {
          "internalType": "uint256",
          "name": "id",
          "type": "uint256"
        },
        {
          "internalType": "uint256",
          "name": "amount",
          "type": "uint256"
        }
      ],
      "name": "mint",
      "outputs": [],
      "stateMutability": "nonpayable",
      "type": "function"
    },
    {
      "inputs": [
        {
          "internalType": "address",
          "name": "account",
          "type": "address"
        },
        {
          "internalType": "uint256",
          "name": "id",
          "type": "uint256"
        },
        {
          "internalType": "uint256",
          "name": "amount",
          "type": "uint256"
        }
      ],
      "name": "burn",
      "outputs": [],
      "stateMutability": "nonpayable",
      "type": "function"
    },
    {
      "inputs": [
        {
          "internalType": "address",
          "name": "account",
          "type": "address"
        },
        {
          "internalType": "uint256",
          "name": "id",
          "type": "uint256"
        }
      ],
      "name": "getBalance",
      "outputs": [
        {
          "internalType": "uint256",
          "name": "balance",
          "type": "uint256"
        }
      ],
      "stateMutability": "view",
      "type": "function",
      "constant": true
    },
    {
      "inputs": [],
      "name": "getCoinPrice",
      "outputs": [
        {
          "internalType": "uint256",
          "name": "price",
          "type": "uint256"
        }
      ],
      "stateMutability": "view",
      "type": "function",
      "constant": true
    },
    {
      "inputs": [
        {
          "internalType": "uint256",
          "name": "amount",
          "type": "uint256"
        }
      ],
      "name": "deposit",
      "outputs": [],
      "stateMutability": "nonpayable",
      "type": "function"
    },
    {
      "inputs": [
        {
          "internalType": "address",
          "name": "payTo",
          "type": "address"
        },
        {
          "internalType": "uint256",
          "name": "amount",
          "type": "uint256"
        }
      ],
      "name": "trade",
      "outputs": [],
      "stateMutability": "nonpayable",
      "type": "function"
    }
  ],
  "bytecode": "0x60806040526040518060400160405280600d81526020017f556e7061696420576f726b657200000000000000000000000000000000000000815250600490816200004a9190620009d9565b506040518060400160405280600281526020017f555700000000000000000000000000000000000000000000000000000000000081525060059081620000919190620009d9565b50620f42406006556040518060400160405280601f81526020017f68747470733a2f2f756e70616964576f726b65722e636f6d2f746f6b656e2f0081525060089081620000df9190620009d9565b50348015620000ed57600080fd5b5060088054620000fd90620007c8565b80601f01602080910402602001604051908101604052809291908181526020018280546200012b90620007c8565b80156200017c5780601f1062000150576101008083540402835291602001916200017c565b820191906000526020600020905b8154815290600101906020018083116200015e57829003601f168201915b5050505050620001a162000195620001ee60201b60201c565b620001f660201b60201c565b620001b281620002ba60201b60201c565b50620001d933600060065460405180602001604052806000815250620002cf60201b60201c565b67016345785d8a0000600781905550620010b9565b600033905090565b60008060009054906101000a900473ffffffffffffffffffffffffffffffffffffffff169050816000806101000a81548173ffffffffffffffffffffffffffffffffffffffff021916908373ffffffffffffffffffffffffffffffffffffffff1602179055508173ffffffffffffffffffffffffffffffffffffffff168173ffffffffffffffffffffffffffffffffffffffff167f8be0079c531659141344cd1fd0a4f28419497f9722a3daafe3b4186f6b6457e060405160405180910390a35050565b8060039081620002cb9190620009d9565b5050565b600073ffffffffffffffffffffffffffffffffffffffff168473ffffffffffffffffffffffffffffffffffffffff160362000341576040517f08c379a0000000000000000000000000000000000000000000000000000000008152600401620003389062000b47565b60405180910390fd5b600062000353620001ee60201b60201c565b905060006200036885620004b760201b60201c565b905060006200037d85620004b760201b60201c565b905062000396836000898585896200053860201b60201c565b846001600088815260200190815260200160002060008973ffffffffffffffffffffffffffffffffffffffff1673ffffffffffffffffffffffffffffffffffffffff1681526020019081526020016000206000828254620003f8919062000b98565b925050819055508673ffffffffffffffffffffffffffffffffffffffff16600073ffffffffffffffffffffffffffffffffffffffff168473ffffffffffffffffffffffffffffffffffffffff167fc3d58168c5ae7397731d063d5bbf3d657854427343f4c083240f7aacaa2d0f6289896040516200047892919062000be4565b60405180910390a462000497836000898585896200054060201b60201c565b620004ae836000898989896200054860201b60201c565b50505050505050565b60606000600167ffffffffffffffff811115620004d957620004d86200076a565b5b604051908082528060200260200182016040528015620005085781602001602082028036833780820191505090505b509050828160008151811062000523576200052262000c11565b5b60200260200101818152505080915050919050565b505050505050565b505050505050565b6200056f8473ffffffffffffffffffffffffffffffffffffffff166200073c60201b60201c565b1562000734578373ffffffffffffffffffffffffffffffffffffffff1663f23a6e6187878686866040518663ffffffff1660e01b8152600401620005b895949392919062000d1f565b6020604051808303816000875af1925050508015620005f757506040513d601f19601f82011682018060405250810190620005f4919062000def565b60015b620006a8576200060662000e2e565b806308c379a0036200066957506200061d62000e89565b806200062a57506200066b565b806040517f08c379a000000000000000000000000000000000000000000000000000000000815260040162000660919062000f65565b60405180910390fd5b505b6040517f08c379a00000000000000000000000000000000000000000000000000000000081526004016200069f9062000fff565b60405180910390fd5b63f23a6e6160e01b7bffffffffffffffffffffffffffffffffffffffffffffffffffffffff1916817bffffffffffffffffffffffffffffffffffffffffffffffffffffffff19161462000732576040517f08c379a0000000000000000000000000000000000000000000000000000000008152600401620007299062001097565b60405180910390fd5b505b505050505050565b6000808273ffffffffffffffffffffffffffffffffffffffff163b119050919050565b600081519050919050565b7f4e487b7100000000000000000000000000000000000000000000000000000000600052604160045260246000fd5b7f4e487b7100000000000000000000000000000000000000000000000000000000600052602260045260246000fd5b60006002820490506001821680620007e157607f821691505b602082108103620007f757620007f662000799565b5b50919050565b60008190508160005260206000209050919050565b60006020601f8301049050919050565b600082821b905092915050565b600060088302620008617fffffffffffffffffffffffffffffffffffffffffffffffffffffffffffffffff8262000822565b6200086d868362000822565b95508019841693508086168417925050509392505050565b6000819050919050565b6000819050919050565b6000620008ba620008b4620008ae8462000885565b6200088f565b62000885565b9050919050565b6000819050919050565b620008d68362000899565b620008ee620008e582620008c1565b8484546200082f565b825550505050565b600090565b62000905620008f6565b62000912818484620008cb565b505050565b5b818110156200093a576200092e600082620008fb565b60018101905062000918565b5050565b601f82111562000989576200095381620007fd565b6200095e8462000812565b810160208510156200096e578190505b620009866200097d8562000812565b83018262000917565b50505b505050565b600082821c905092915050565b6000620009ae600019846008026200098e565b1980831691505092915050565b6000620009c983836200099b565b9150826002028217905092915050565b620009e4826200075f565b67ffffffffffffffff81111562000a0057620009ff6200076a565b5b62000a0c8254620007c8565b62000a198282856200093e565b600060209050601f83116001811462000a51576000841562000a3c578287015190505b62000a488582620009bb565b86555062000ab8565b601f19841662000a6186620007fd565b60005b8281101562000a8b5784890151825560018201915060208501945060208101905062000a64565b8683101562000aab578489015162000aa7601f8916826200099b565b8355505b6001600288020188555050505b505050505050565b600082825260208201905092915050565b7f455243313135353a206d696e7420746f20746865207a65726f2061646472657360008201527f7300000000000000000000000000000000000000000000000000000000000000602082015250565b600062000b2f60218362000ac0565b915062000b3c8262000ad1565b604082019050919050565b6000602082019050818103600083015262000b628162000b20565b9050919050565b7f4e487b7100000000000000000000000000000000000000000000000000000000600052601160045260246000fd5b600062000ba58262000885565b915062000bb28362000885565b925082820190508082111562000bcd5762000bcc62000b69565b5b92915050565b62000bde8162000885565b82525050565b600060408201905062000bfb600083018562000bd3565b62000c0a602083018462000bd3565b9392505050565b7f4e487b7100000000000000000000000000000000000000000000000000000000600052603260045260246000fd5b600073ffffffffffffffffffffffffffffffffffffffff82169050919050565b600062000c6d8262000c40565b9050919050565b62000c7f8162000c60565b82525050565b600081519050919050565b600082825260208201905092915050565b60005b8381101562000cc157808201518184015260208101905062000ca4565b60008484015250505050565b6000601f19601f8301169050919050565b600062000ceb8262000c85565b62000cf7818562000c90565b935062000d0981856020860162000ca1565b62000d148162000ccd565b840191505092915050565b600060a08201905062000d36600083018862000c74565b62000d45602083018762000c74565b62000d54604083018662000bd3565b62000d63606083018562000bd3565b818103608083015262000d77818462000cde565b90509695505050505050565b6000604051905090565b600080fd5b60007fffffffff0000000000000000000000000000000000000000000000000000000082169050919050565b62000dc98162000d92565b811462000dd557600080fd5b50565b60008151905062000de98162000dbe565b92915050565b60006020828403121562000e085762000e0762000d8d565b5b600062000e188482850162000dd8565b91505092915050565b60008160e01c9050919050565b600060033d111562000e505760046000803e62000e4d60005162000e21565b90505b90565b62000e5e8262000ccd565b810181811067ffffffffffffffff8211171562000e805762000e7f6200076a565b5b80604052505050565b600060443d1062000f215762000e9e62000d83565b60043d036004823e80513d602482011167ffffffffffffffff8211171562000ec857505062000f21565b808201805167ffffffffffffffff81111562000ee8575050505062000f21565b80602083010160043d03850181111562000f0757505050505062000f21565b62000f188260200185018662000e53565b82955050505050505b90565b600062000f31826200075f565b62000f3d818562000ac0565b935062000f4f81856020860162000ca1565b62000f5a8162000ccd565b840191505092915050565b6000602082019050818103600083015262000f81818462000f24565b905092915050565b7f455243313135353a207472616e7366657220746f206e6f6e2d4552433131353560008201527f526563656976657220696d706c656d656e746572000000000000000000000000602082015250565b600062000fe760348362000ac0565b915062000ff48262000f89565b604082019050919050565b600060208201905081810360008301526200101a8162000fd8565b9050919050565b7f455243313135353a204552433131353552656365697665722072656a6563746560008201527f6420746f6b656e73000000000000000000000000000000000000000000000000602082015250565b60006200107f60288362000ac0565b91506200108c8262001021565b604082019050919050565b60006020820190508181036000830152620010b28162001070565b9050919050565b6135b380620010c96000396000f3fe608060405234801561001057600080fd5b506004361061010a5760003560e01c8063715018a6116100a2578063cd0336c011610071578063cd0336c0146102b3578063e985e9c5146102d1578063f242432a14610301578063f2fde38b1461031d578063f5298aca146103395761010a565b8063715018a6146102535780638da5cb5b1461025d578063a22cb4651461027b578063b6b55f25146102975761010a565b80632b04e840116100de5780632b04e840146101bb5780632eb2c2d6146101eb5780634e1273f41461020757806368f8c2a4146102375761010a565b8062fdd58e1461010f57806301ffc9a71461013f5780630e89341c1461016f578063156e29f61461019f575b600080fd5b61012960048036038101906101249190611edb565b610355565b6040516101369190611f2a565b60405180910390f35b61015960048036038101906101549190611f9d565b61041e565b6040516101669190611fe5565b60405180910390f35b61018960048036038101906101849190612000565b610500565b60405161019691906120bd565b60405180910390f35b6101b960048036038101906101b491906120df565b610594565b005b6101d560048036038101906101d09190611edb565b6105bc565b6040516101e29190611f2a565b60405180910390f35b6102056004803603810190610200919061232f565b610645565b005b610221600480360381019061021c91906124c1565b6106e6565b60405161022e91906125f7565b60405180910390f35b610251600480360381019061024c9190611edb565b6107ff565b005b61025b61099b565b005b6102656109af565b6040516102729190612628565b60405180910390f35b6102956004803603810190610290919061266f565b6109d8565b005b6102b160048036038101906102ac9190612000565b6109ee565b005b6102bb610b23565b6040516102c89190611f2a565b60405180910390f35b6102eb60048036038101906102e691906126af565b610b2d565b6040516102f89190611fe5565b60405180910390f35b61031b600480360381019061031691906126ef565b610bc1565b005b61033760048036038101906103329190612786565b610c62565b005b610353600480360381019061034e91906120df565b610ce5565b005b60008073ffffffffffffffffffffffffffffffffffffffff168373ffffffffffffffffffffffffffffffffffffffff16036103c5576040517f08c379a00000000000000000000000000000000000000000000000000000000081526004016103bc90612825565b60405180910390fd5b6001600083815260200190815260200160002060008473ffffffffffffffffffffffffffffffffffffffff1673ffffffffffffffffffffffffffffffffffffffff16815260200190815260200160002054905092915050565b60007fd9b67a26000000000000000000000000000000000000000000000000000000007bffffffffffffffffffffffffffffffffffffffffffffffffffffffff1916827bffffffffffffffffffffffffffffffffffffffffffffffffffffffff191614806104e957507f0e89341c000000000000000000000000000000000000000000000000000000007bffffffffffffffffffffffffffffffffffffffffffffffffffffffff1916827bffffffffffffffffffffffffffffffffffffffffffffffffffffffff1916145b806104f957506104f882610cfd565b5b9050919050565b60606003805461050f90612874565b80601f016020809104026020016040519081016040528092919081815260200182805461053b90612874565b80156105885780601f1061055d57610100808354040283529160200191610588565b820191906000526020600020905b81548152906001019060200180831161056b57829003601f168201915b50505050509050919050565b61059c610d67565b6105b783838360405180602001604052806000815250610de5565b505050565b60006105c66109af565b73ffffffffffffffffffffffffffffffffffffffff163373ffffffffffffffffffffffffffffffffffffffff1603610633576040517f08c379a000000000000000000000000000000000000000000000000000000000815260040161062a90612917565b60405180910390fd5b61063d8383610355565b905092915050565b61064d610f96565b73ffffffffffffffffffffffffffffffffffffffff168573ffffffffffffffffffffffffffffffffffffffff16148061069357506106928561068d610f96565b610b2d565b5b6106d2576040517f08c379a00000000000000000000000000000000000000000000000000000000081526004016106c9906129a9565b60405180910390fd5b6106df8585858585610f9e565b5050505050565b6060815183511461072c576040517f08c379a000000000000000000000000000000000000000000000000000000000815260040161072390612a3b565b60405180910390fd5b6000835167ffffffffffffffff81111561074957610748612137565b5b6040519080825280602002602001820160405280156107775781602001602082028036833780820191505090505b50905060005b84518110156107f4576107c485828151811061079c5761079b612a5b565b5b60200260200101518583815181106107b7576107b6612a5b565b5b6020026020010151610355565b8282815181106107d7576107d6612a5b565b5b602002602001018181525050806107ed90612ab9565b905061077d565b508091505092915050565b6108076109af565b73ffffffffffffffffffffffffffffffffffffffff163373ffffffffffffffffffffffffffffffffffffffff1603610874576040517f08c379a000000000000000000000000000000000000000000000000000000000815260040161086b90612917565b60405180910390fd5b80600081116108b8576040517f08c379a00000000000000000000000000000000000000000000000000000000081526004016108af90612b4d565b60405180910390fd5b3373ffffffffffffffffffffffffffffffffffffffff168373ffffffffffffffffffffffffffffffffffffffff1603610926576040517f08c379a000000000000000000000000000000000000000000000000000000000815260040161091d90612bb9565b60405180910390fd5b60006109333360006105bc565b905082811015610978576040517f08c379a000000000000000000000000000000000000000000000000000000000815260040161096f90612c25565b60405180910390fd5b6109953385600086604051806020016040528060008152506112c2565b50505050565b6109a3610d67565b6109ad6000611560565b565b60008060009054906101000a900473ffffffffffffffffffffffffffffffffffffffff16905090565b6109ea6109e3610f96565b8383611624565b5050565b6109f66109af565b73ffffffffffffffffffffffffffffffffffffffff163373ffffffffffffffffffffffffffffffffffffffff1603610a63576040517f08c379a0000000000000000000000000000000000000000000000000000000008152600401610a5a90612917565b60405180910390fd5b8060008111610aa7576040517f08c379a0000000000000000000000000000000000000000000000000000000008152600401610a9e90612b4d565b60405180910390fd5b81610aba610ab36109af565b6000610355565b1015610afb576040517f08c379a0000000000000000000000000000000000000000000000000000000008152600401610af290612c91565b60405180910390fd5b610b1f610b066109af565b33600085604051806020016040528060008152506112c2565b5050565b6000600754905090565b6000600260008473ffffffffffffffffffffffffffffffffffffffff1673ffffffffffffffffffffffffffffffffffffffff16815260200190815260200160002060008373ffffffffffffffffffffffffffffffffffffffff1673ffffffffffffffffffffffffffffffffffffffff16815260200190815260200160002060009054906101000a900460ff16905092915050565b610bc9610f96565b73ffffffffffffffffffffffffffffffffffffffff168573ffffffffffffffffffffffffffffffffffffffff161480610c0f5750610c0e85610c09610f96565b610b2d565b5b610c4e576040517f08c379a0000000000000000000000000000000000000000000000000000000008152600401610c45906129a9565b60405180910390fd5b610c5b85858585856112c2565b5050505050565b610c6a610d67565b600073ffffffffffffffffffffffffffffffffffffffff168173ffffffffffffffffffffffffffffffffffffffff1603610cd9576040517f08c379a0000000000000000000000000000000000000000000000000000000008152600401610cd090612d23565b60405180910390fd5b610ce281611560565b50565b610ced610d67565b610cf8838383611790565b505050565b60007f01ffc9a7000000000000000000000000000000000000000000000000000000007bffffffffffffffffffffffffffffffffffffffffffffffffffffffff1916827bffffffffffffffffffffffffffffffffffffffffffffffffffffffff1916149050919050565b610d6f610f96565b73ffffffffffffffffffffffffffffffffffffffff16610d8d6109af565b73ffffffffffffffffffffffffffffffffffffffff1614610de3576040517f08c379a0000000000000000000000000000000000000000000000000000000008152600401610dda90612d8f565b60405180910390fd5b565b600073ffffffffffffffffffffffffffffffffffffffff168473ffffffffffffffffffffffffffffffffffffffff1603610e54576040517f08c379a0000000000000000000000000000000000000000000000000000000008152600401610e4b90612e21565b60405180910390fd5b6000610e5e610f96565b90506000610e6b856119d8565b90506000610e78856119d8565b9050610e8983600089858589611a52565b846001600088815260200190815260200160002060008973ffffffffffffffffffffffffffffffffffffffff1673ffffffffffffffffffffffffffffffffffffffff1681526020019081526020016000206000828254610ee99190612e41565b925050819055508673ffffffffffffffffffffffffffffffffffffffff16600073ffffffffffffffffffffffffffffffffffffffff168473ffffffffffffffffffffffffffffffffffffffff167fc3d58168c5ae7397731d063d5bbf3d657854427343f4c083240f7aacaa2d0f628989604051610f67929190612e75565b60405180910390a4610f7e83600089858589611a5a565b610f8d83600089898989611a62565b50505050505050565b600033905090565b8151835114610fe2576040517f08c379a0000000000000000000000000000000000000000000000000000000008152600401610fd990612f10565b60405180910390fd5b600073ffffffffffffffffffffffffffffffffffffffff168473ffffffffffffffffffffffffffffffffffffffff1603611051576040517f08c379a000000000000000000000000000000000000000000000000000000000815260040161104890612fa2565b60405180910390fd5b600061105b610f96565b905061106b818787878787611a52565b60005b845181101561121f57600085828151811061108c5761108b612a5b565b5b6020026020010151905060008583815181106110ab576110aa612a5b565b5b6020026020010151905060006001600084815260200190815260200160002060008b73ffffffffffffffffffffffffffffffffffffffff1673ffffffffffffffffffffffffffffffffffffffff1681526020019081526020016000205490508181101561114d576040517f08c379a000000000000000000000000000000000000000000000000000000000815260040161114490613034565b60405180910390fd5b8181036001600085815260200190815260200160002060008c73ffffffffffffffffffffffffffffffffffffffff1673ffffffffffffffffffffffffffffffffffffffff16815260200190815260200160002081905550816001600085815260200190815260200160002060008b73ffffffffffffffffffffffffffffffffffffffff1673ffffffffffffffffffffffffffffffffffffffff16815260200190815260200160002060008282546112049190612e41565b925050819055505050508061121890612ab9565b905061106e565b508473ffffffffffffffffffffffffffffffffffffffff168673ffffffffffffffffffffffffffffffffffffffff168273ffffffffffffffffffffffffffffffffffffffff167f4a39dc06d4c0dbc64b70af90fd698a233a518aa5d07e595d983b8c0526c8f7fb8787604051611296929190613054565b60405180910390a46112ac818787878787611a5a565b6112ba818787878787611c39565b505050505050565b600073ffffffffffffffffffffffffffffffffffffffff168473ffffffffffffffffffffffffffffffffffffffff1603611331576040517f08c379a000000000000000000000000000000000000000000000000000000000815260040161132890612fa2565b60405180910390fd5b600061133b610f96565b90506000611348856119d8565b90506000611355856119d8565b9050611365838989858589611a52565b60006001600088815260200190815260200160002060008a73ffffffffffffffffffffffffffffffffffffffff1673ffffffffffffffffffffffffffffffffffffffff168152602001908152602001600020549050858110156113fd576040517f08c379a00000000000000000000000000000000000000000000000000000000081526004016113f490613034565b60405180910390fd5b8581036001600089815260200190815260200160002060008b73ffffffffffffffffffffffffffffffffffffffff1673ffffffffffffffffffffffffffffffffffffffff16815260200190815260200160002081905550856001600089815260200190815260200160002060008a73ffffffffffffffffffffffffffffffffffffffff1673ffffffffffffffffffffffffffffffffffffffff16815260200190815260200160002060008282546114b49190612e41565b925050819055508773ffffffffffffffffffffffffffffffffffffffff168973ffffffffffffffffffffffffffffffffffffffff168573ffffffffffffffffffffffffffffffffffffffff167fc3d58168c5ae7397731d063d5bbf3d657854427343f4c083240f7aacaa2d0f628a8a604051611531929190612e75565b60405180910390a4611547848a8a86868a611a5a565b611555848a8a8a8a8a611a62565b505050505050505050565b60008060009054906101000a900473ffffffffffffffffffffffffffffffffffffffff169050816000806101000a81548173ffffffffffffffffffffffffffffffffffffffff021916908373ffffffffffffffffffffffffffffffffffffffff1602179055508173ffffffffffffffffffffffffffffffffffffffff168173ffffffffffffffffffffffffffffffffffffffff167f8be0079c531659141344cd1fd0a4f28419497f9722a3daafe3b4186f6b6457e060405160405180910390a35050565b8173ffffffffffffffffffffffffffffffffffffffff168373ffffffffffffffffffffffffffffffffffffffff1603611692576040517f08c379a0000000000000000000000000000000000000000000000000000000008152600401611689906130fd565b60405180910390fd5b80600260008573ffffffffffffffffffffffffffffffffffffffff1673ffffffffffffffffffffffffffffffffffffffff16815260200190815260200160002060008473ffffffffffffffffffffffffffffffffffffffff1673ffffffffffffffffffffffffffffffffffffffff16815260200190815260200160002060006101000a81548160ff0219169083151502179055508173ffffffffffffffffffffffffffffffffffffffff168373ffffffffffffffffffffffffffffffffffffffff167f17307eab39ab6107e8899845ad3d59bd9653f200f220920489ca2b5937696c31836040516117839190611fe5565b60405180910390a3505050565b600073ffffffffffffffffffffffffffffffffffffffff168373ffffffffffffffffffffffffffffffffffffffff16036117ff576040517f08c379a00000000000000000000000000000000000000000000000000000000081526004016117f69061318f565b60405180910390fd5b6000611809610f96565b90506000611816846119d8565b90506000611823846119d8565b905061184383876000858560405180602001604052806000815250611a52565b60006001600087815260200190815260200160002060008873ffffffffffffffffffffffffffffffffffffffff1673ffffffffffffffffffffffffffffffffffffffff168152602001908152602001600020549050848110156118db576040517f08c379a00000000000000000000000000000000000000000000000000000000081526004016118d290613221565b60405180910390fd5b8481036001600088815260200190815260200160002060008973ffffffffffffffffffffffffffffffffffffffff1673ffffffffffffffffffffffffffffffffffffffff16815260200190815260200160002081905550600073ffffffffffffffffffffffffffffffffffffffff168773ffffffffffffffffffffffffffffffffffffffff168573ffffffffffffffffffffffffffffffffffffffff167fc3d58168c5ae7397731d063d5bbf3d657854427343f4c083240f7aacaa2d0f6289896040516119a9929190612e75565b60405180910390a46119cf84886000868660405180602001604052806000815250611a5a565b50505050505050565b60606000600167ffffffffffffffff8111156119f7576119f6612137565b5b604051908082528060200260200182016040528015611a255781602001602082028036833780820191505090505b5090508281600081518110611a3d57611a3c612a5b565b5b60200260200101818152505080915050919050565b505050505050565b505050505050565b611a818473ffffffffffffffffffffffffffffffffffffffff16611e10565b15611c31578373ffffffffffffffffffffffffffffffffffffffff1663f23a6e6187878686866040518663ffffffff1660e01b8152600401611ac7959493929190613296565b6020604051808303816000875af1925050508015611b0357506040513d601f19601f82011682018060405250810190611b009190613305565b60015b611ba857611b0f61333f565b806308c379a003611b6b5750611b23613361565b80611b2e5750611b6d565b806040517f08c379a0000000000000000000000000000000000000000000000000000000008152600401611b6291906120bd565b60405180910390fd5b505b6040517f08c379a0000000000000000000000000000000000000000000000000000000008152600401611b9f90613463565b60405180910390fd5b63f23a6e6160e01b7bffffffffffffffffffffffffffffffffffffffffffffffffffffffff1916817bffffffffffffffffffffffffffffffffffffffffffffffffffffffff191614611c2f576040517f08c379a0000000000000000000000000000000000000000000000000000000008152600401611c26906134f5565b60405180910390fd5b505b505050505050565b611c588473ffffffffffffffffffffffffffffffffffffffff16611e10565b15611e08578373ffffffffffffffffffffffffffffffffffffffff1663bc197c8187878686866040518663ffffffff1660e01b8152600401611c9e959493929190613515565b6020604051808303816000875af1925050508015611cda57506040513d601f19601f82011682018060405250810190611cd79190613305565b60015b611d7f57611ce661333f565b806308c379a003611d425750611cfa613361565b80611d055750611d44565b806040517f08c379a0000000000000000000000000000000000000000000000000000000008152600401611d3991906120bd565b60405180910390fd5b505b6040517f08c379a0000000000000000000000000000000000000000000000000000000008152600401611d7690613463565b60405180910390fd5b63bc197c8160e01b7bffffffffffffffffffffffffffffffffffffffffffffffffffffffff1916817bffffffffffffffffffffffffffffffffffffffffffffffffffffffff191614611e06576040517f08c379a0000000000000000000000000000000000000000000000000000000008152600401611dfd906134f5565b60405180910390fd5b505b505050505050565b6000808273ffffffffffffffffffffffffffffffffffffffff163b119050919050565b6000604051905090565b600080fd5b600080fd5b600073ffffffffffffffffffffffffffffffffffffffff82169050919050565b6000611e7282611e47565b9050919050565b611e8281611e67565b8114611e8d57600080fd5b50565b600081359050611e9f81611e79565b92915050565b6000819050919050565b611eb881611ea5565b8114611ec357600080fd5b50565b600081359050611ed581611eaf565b92915050565b60008060408385031215611ef257611ef1611e3d565b5b6000611f0085828601611e90565b9250506020611f1185828601611ec6565b9150509250929050565b611f2481611ea5565b82525050565b6000602082019050611f3f6000830184611f1b565b92915050565b60007fffffffff0000000000000000000000000000000000000000000000000000000082169050919050565b611f7a81611f45565b8114611f8557600080fd5b50565b600081359050611f9781611f71565b92915050565b600060208284031215611fb357611fb2611e3d565b5b6000611fc184828501611f88565b91505092915050565b60008115159050919050565b611fdf81611fca565b82525050565b6000602082019050611ffa6000830184611fd6565b92915050565b60006020828403121561201657612015611e3d565b5b600061202484828501611ec6565b91505092915050565b600081519050919050565b600082825260208201905092915050565b60005b8381101561206757808201518184015260208101905061204c565b60008484015250505050565b6000601f19601f8301169050919050565b600061208f8261202d565b6120998185612038565b93506120a9818560208601612049565b6120b281612073565b840191505092915050565b600060208201905081810360008301526120d78184612084565b905092915050565b6000806000606084860312156120f8576120f7611e3d565b5b600061210686828701611e90565b935050602061211786828701611ec6565b925050604061212886828701611ec6565b9150509250925092565b600080fd5b7f4e487b7100000000000000000000000000000000000000000000000000000000600052604160045260246000fd5b61216f82612073565b810181811067ffffffffffffffff8211171561218e5761218d612137565b5b80604052505050565b60006121a1611e33565b90506121ad8282612166565b919050565b600067ffffffffffffffff8211156121cd576121cc612137565b5b602082029050602081019050919050565b600080fd5b60006121f66121f1846121b2565b612197565b90508083825260208201905060208402830185811115612219576122186121de565b5b835b81811015612242578061222e8882611ec6565b84526020840193505060208101905061221b565b5050509392505050565b600082601f83011261226157612260612132565b5b81356122718482602086016121e3565b91505092915050565b600080fd5b600067ffffffffffffffff82111561229a57612299612137565b5b6122a382612073565b9050602081019050919050565b82818337600083830152505050565b60006122d26122cd8461227f565b612197565b9050828152602081018484840111156122ee576122ed61227a565b5b6122f98482856122b0565b509392505050565b600082601f83011261231657612315612132565b5b81356123268482602086016122bf565b91505092915050565b600080600080600060a0868803121561234b5761234a611e3d565b5b600061235988828901611e90565b955050602061236a88828901611e90565b945050604086013567ffffffffffffffff81111561238b5761238a611e42565b5b6123978882890161224c565b935050606086013567ffffffffffffffff8111156123b8576123b7611e42565b5b6123c48882890161224c565b925050608086013567ffffffffffffffff8111156123e5576123e4611e42565b5b6123f188828901612301565b9150509295509295909350565b600067ffffffffffffffff82111561241957612418612137565b5b602082029050602081019050919050565b600061243d612438846123fe565b612197565b905080838252602082019050602084028301858111156124605761245f6121de565b5b835b8181101561248957806124758882611e90565b845260208401935050602081019050612462565b5050509392505050565b600082601f8301126124a8576124a7612132565b5b81356124b884826020860161242a565b91505092915050565b600080604083850312156124d8576124d7611e3d565b5b600083013567ffffffffffffffff8111156124f6576124f5611e42565b5b61250285828601612493565b925050602083013567ffffffffffffffff81111561252357612522611e42565b5b61252f8582860161224c565b9150509250929050565b600081519050919050565b600082825260208201905092915050565b6000819050602082019050919050565b61256e81611ea5565b82525050565b60006125808383612565565b60208301905092915050565b6000602082019050919050565b60006125a482612539565b6125ae8185612544565b93506125b983612555565b8060005b838110156125ea5781516125d18882612574565b97506125dc8361258c565b9250506001810190506125bd565b5085935050505092915050565b600060208201905081810360008301526126118184612599565b905092915050565b61262281611e67565b82525050565b600060208201905061263d6000830184612619565b92915050565b61264c81611fca565b811461265757600080fd5b50565b60008135905061266981612643565b92915050565b6000806040838503121561268657612685611e3d565b5b600061269485828601611e90565b92505060206126a58582860161265a565b9150509250929050565b600080604083850312156126c6576126c5611e3d565b5b60006126d485828601611e90565b92505060206126e585828601611e90565b9150509250929050565b600080600080600060a0868803121561270b5761270a611e3d565b5b600061271988828901611e90565b955050602061272a88828901611e90565b945050604061273b88828901611ec6565b935050606061274c88828901611ec6565b925050608086013567ffffffffffffffff81111561276d5761276c611e42565b5b61277988828901612301565b9150509295509295909350565b60006020828403121561279c5761279b611e3d565b5b60006127aa84828501611e90565b91505092915050565b7f455243313135353a2061646472657373207a65726f206973206e6f742061207660008201527f616c6964206f776e657200000000000000000000000000000000000000000000602082015250565b600061280f602a83612038565b915061281a826127b3565b604082019050919050565b6000602082019050818103600083015261283e81612802565b9050919050565b7f4e487b7100000000000000000000000000000000000000000000000000000000600052602260045260246000fd5b6000600282049050600182168061288c57607f821691505b60208210810361289f5761289e612845565b5b50919050565b7f4f6e6c792075736572732063616e2063616c6c20746869732066756e6374696f60008201527f6e00000000000000000000000000000000000000000000000000000000000000602082015250565b6000612901602183612038565b915061290c826128a5565b604082019050919050565b60006020820190508181036000830152612930816128f4565b9050919050565b7f455243313135353a2063616c6c6572206973206e6f7420746f6b656e206f776e60008201527f6572206f7220617070726f766564000000000000000000000000000000000000602082015250565b6000612993602e83612038565b915061299e82612937565b604082019050919050565b600060208201905081810360008301526129c281612986565b9050919050565b7f455243313135353a206163636f756e747320616e6420696473206c656e67746860008201527f206d69736d617463680000000000000000000000000000000000000000000000602082015250565b6000612a25602983612038565b9150612a30826129c9565b604082019050919050565b60006020820190508181036000830152612a5481612a18565b9050919050565b7f4e487b7100000000000000000000000000000000000000000000000000000000600052603260045260246000fd5b7f4e487b7100000000000000000000000000000000000000000000000000000000600052601160045260246000fd5b6000612ac482611ea5565b91507fffffffffffffffffffffffffffffffffffffffffffffffffffffffffffffffff8203612af657612af5612a8a565b5b600182019050919050565b7f4d6f6e6579206d7573742062652067726561746572207468616e207a65726f00600082015250565b6000612b37601f83612038565b9150612b4282612b01565b602082019050919050565b60006020820190508181036000830152612b6681612b2a565b9050919050565b7f43616e6e6f7420747261646520746f6b656e7320746f20796f757273656c6600600082015250565b6000612ba3601f83612038565b9150612bae82612b6d565b602082019050919050565b60006020820190508181036000830152612bd281612b96565b9050919050565b7f496e73756666696369656e7420746f6b656e2062616c616e6365000000000000600082015250565b6000612c0f601a83612038565b9150612c1a82612bd9565b602082019050919050565b60006020820190508181036000830152612c3e81612c02565b9050919050565b7f496e73756666696369656e742062616c616e6365206f6620746f6b656e000000600082015250565b6000612c7b601d83612038565b9150612c8682612c45565b602082019050919050565b60006020820190508181036000830152612caa81612c6e565b9050919050565b7f4f776e61626c653a206e6577206f776e657220697320746865207a65726f206160008201527f6464726573730000000000000000000000000000000000000000000000000000602082015250565b6000612d0d602683612038565b9150612d1882612cb1565b604082019050919050565b60006020820190508181036000830152612d3c81612d00565b9050919050565b7f4f776e61626c653a2063616c6c6572206973206e6f7420746865206f776e6572600082015250565b6000612d79602083612038565b9150612d8482612d43565b602082019050919050565b60006020820190508181036000830152612da881612d6c565b9050919050565b7f455243313135353a206d696e7420746f20746865207a65726f2061646472657360008201527f7300000000000000000000000000000000000000000000000000000000000000602082015250565b6000612e0b602183612038565b9150612e1682612daf565b604082019050919050565b60006020820190508181036000830152612e3a81612dfe565b9050919050565b6000612e4c82611ea5565b9150612e5783611ea5565b9250828201905080821115612e6f57612e6e612a8a565b5b92915050565b6000604082019050612e8a6000830185611f1b565b612e976020830184611f1b565b9392505050565b7f455243313135353a2069647320616e6420616d6f756e7473206c656e6774682060008201527f6d69736d61746368000000000000000000000000000000000000000000000000602082015250565b6000612efa602883612038565b9150612f0582612e9e565b604082019050919050565b60006020820190508181036000830152612f2981612eed565b9050919050565b7f455243313135353a207472616e7366657220746f20746865207a65726f20616460008201527f6472657373000000000000000000000000000000000000000000000000000000602082015250565b6000612f8c602583612038565b9150612f9782612f30565b604082019050919050565b60006020820190508181036000830152612fbb81612f7f565b9050919050565b7f455243313135353a20696e73756666696369656e742062616c616e636520666f60008201527f72207472616e7366657200000000000000000000000000000000000000000000602082015250565b600061301e602a83612038565b915061302982612fc2565b604082019050919050565b6000602082019050818103600083015261304d81613011565b9050919050565b6000604082019050818103600083015261306e8185612599565b905081810360208301526130828184612599565b90509392505050565b7f455243313135353a2073657474696e6720617070726f76616c2073746174757360008201527f20666f722073656c660000000000000000000000000000000000000000000000602082015250565b60006130e7602983612038565b91506130f28261308b565b604082019050919050565b60006020820190508181036000830152613116816130da565b9050919050565b7f455243313135353a206275726e2066726f6d20746865207a65726f206164647260008201527f6573730000000000000000000000000000000000000000000000000000000000602082015250565b6000613179602383612038565b91506131848261311d565b604082019050919050565b600060208201905081810360008301526131a88161316c565b9050919050565b7f455243313135353a206275726e20616d6f756e7420657863656564732062616c60008201527f616e636500000000000000000000000000000000000000000000000000000000602082015250565b600061320b602483612038565b9150613216826131af565b604082019050919050565b6000602082019050818103600083015261323a816131fe565b9050919050565b600081519050919050565b600082825260208201905092915050565b600061326882613241565b613272818561324c565b9350613282818560208601612049565b61328b81612073565b840191505092915050565b600060a0820190506132ab6000830188612619565b6132b86020830187612619565b6132c56040830186611f1b565b6132d26060830185611f1b565b81810360808301526132e4818461325d565b90509695505050505050565b6000815190506132ff81611f71565b92915050565b60006020828403121561331b5761331a611e3d565b5b6000613329848285016132f0565b91505092915050565b60008160e01c9050919050565b600060033d111561335e5760046000803e61335b600051613332565b90505b90565b600060443d106133ee57613373611e33565b60043d036004823e80513d602482011167ffffffffffffffff8211171561339b5750506133ee565b808201805167ffffffffffffffff8111156133b957505050506133ee565b80602083010160043d0385018111156133d65750505050506133ee565b6133e582602001850186612166565b82955050505050505b90565b7f455243313135353a207472616e7366657220746f206e6f6e2d4552433131353560008201527f526563656976657220696d706c656d656e746572000000000000000000000000602082015250565b600061344d603483612038565b9150613458826133f1565b604082019050919050565b6000602082019050818103600083015261347c81613440565b9050919050565b7f455243313135353a204552433131353552656365697665722072656a6563746560008201527f6420746f6b656e73000000000000000000000000000000000000000000000000602082015250565b60006134df602883612038565b91506134ea82613483565b604082019050919050565b6000602082019050818103600083015261350e816134d2565b9050919050565b600060a08201905061352a6000830188612619565b6135376020830187612619565b81810360408301526135498186612599565b9050818103606083015261355d8185612599565b90508181036080830152613571818461325d565b9050969550505050505056fea2646970667358221220855fd5345d696b565fc47869aaee6a911afc06f46a0f8e7ccd14b776cd7c6f0664736f6c63430008130033",
  "immutableReferences": {},
  "source": "// SPDX-License-Identifier: GPL-3.0\npragma solidity ^0.8.0;\n\nimport \"@openzeppelin/contracts/token/ERC1155/ERC1155.sol\";\nimport \"@openzeppelin/contracts/utils/Strings.sol\";\nimport \"@openzeppelin/contracts/access/Ownable.sol\";\n\n\ncontract PaySystem is Ownable, ERC1155 {\n\n    string private name = \"Unpaid Worker\";\n    string private symbol = \"UW\";\n    uint256 private totalSupply = 1000000;\n    uint256 private coinPrice;\n    //0\n    // uint256 public constant tokenId = 0;\n\n    //\n    string private baseURI= \"https://unpaidWorker.com/token/\";\n\n    // mapping(address => mapping(address => uint256)) allowed;\n\n    constructor() ERC1155(baseURI) {\n        _mint(msg.sender, 0, totalSupply, \"\");\n        coinPrice = 0.1 ether;\n    }\n\n    modifier onlyUser() {\n        require(msg.sender != owner(), \"Only users can call this function\");\n        _;\n    }\n\n    modifier moneyGreaterThanZero(uint value) {\n        require(value > 0, \"Money must be greater than zero\");\n        _;\n    }\n\n    function mint(address account, uint256 id, uint256 amount) public onlyOwner {\n        _mint(account, id, amount, \"\");\n    }\n\n    function burn(address account, uint256 id, uint256 amount) public onlyOwner {\n        _burn(account, id, amount);\n    }\n    //id0\n    function getBalance(address account, uint256 id) public view onlyUser returns (uint256 balance) {\n        balance = balanceOf(account, id);\n    }\n    function getCoinPrice() public view returns (uint256 price) {\n        price = coinPrice;\n    }\n\n    function deposit(uint amount) public onlyUser moneyGreaterThanZero(amount) {\n        require(balanceOf(owner(), 0) >= amount, \"Insufficient balance of token\");\n        _safeTransferFrom(owner(), msg.sender, 0, amount, \"\");\n    }\n\n    function trade(address payTo, uint amount) public onlyUser moneyGreaterThanZero(amount) {\n        require(payTo != msg.sender, \"Cannot trade tokens to yourself\");\n        uint tokenBalance = getBalance(msg.sender, 0);\n        require(tokenBalance >= amount, \"Insufficient token balance\");\n        _safeTransferFrom(msg.sender, payTo, 0, amount, \"\");\n    }\n\n\n}\n\n",
  "sourcePath": "/Users/haifengxiao/Parking/Parking-contract/contracts/PaySystem.sol",
  "compiler": {
    "name": "solc",
    "version": "0.8.19+commit.7dd6d404.Emscripten.clang"
  },
  "schemaVersion": "3.4.13",
  "updatedAt": "2023-04-26T17:23:18.800Z",
  "networkType": "ethereum",
  "devdoc": {
    "events": {
      "ApprovalForAll(address,address,bool)": {
        "details": "Emitted when `account` grants or revokes permission to `operator` to transfer their tokens, according to `approved`."
      },
      "TransferBatch(address,address,address,uint256[],uint256[])": {
        "details": "Equivalent to multiple {TransferSingle} events, where `operator`, `from` and `to` are the same for all transfers."
      },
      "TransferSingle(address,address,address,uint256,uint256)": {
        "details": "Emitted when `value` tokens of token type `id` are transferred from `from` to `to` by `operator`."
      },
      "URI(string,uint256)": {
        "details": "Emitted when the URI for token type `id` changes to `value`, if it is a non-programmatic URI. If an {URI} event was emitted for `id`, the standard https://eips.ethereum.org/EIPS/eip-1155#metadata-extensions[guarantees] that `value` will equal the value returned by {IERC1155MetadataURI-uri}."
      }
    },
    "kind": "dev",
    "methods": {
      "balanceOf(address,uint256)": {
        "details": "See {IERC1155-balanceOf}. Requirements: - `account` cannot be the zero address."
      },
      "balanceOfBatch(address[],uint256[])": {
        "details": "See {IERC1155-balanceOfBatch}. Requirements: - `accounts` and `ids` must have the same length."
      },
      "isApprovedForAll(address,address)": {
        "details": "See {IERC1155-isApprovedForAll}."
      },
      "owner()": {
        "details": "Returns the address of the current owner."
      },
      "renounceOwnership()": {
        "details": "Leaves the contract without owner. It will not be possible to call `onlyOwner` functions anymore. Can only be called by the current owner. NOTE: Renouncing ownership will leave the contract without an owner, thereby removing any functionality that is only available to the owner."
      },
      "safeBatchTransferFrom(address,address,uint256[],uint256[],bytes)": {
        "details": "See {IERC1155-safeBatchTransferFrom}."
      },
      "safeTransferFrom(address,address,uint256,uint256,bytes)": {
        "details": "See {IERC1155-safeTransferFrom}."
      },
      "setApprovalForAll(address,bool)": {
        "details": "See {IERC1155-setApprovalForAll}."
      },
      "supportsInterface(bytes4)": {
        "details": "See {IERC165-supportsInterface}."
      },
      "transferOwnership(address)": {
        "details": "Transfers ownership of the contract to a new account (`newOwner`). Can only be called by the current owner."
      },
      "uri(uint256)": {
        "details": "See {IERC1155MetadataURI-uri}. This implementation returns the same URI for *all* token types. It relies on the token type ID substitution mechanism https://eips.ethereum.org/EIPS/eip-1155#metadata[defined in the EIP]. Clients calling this function must replace the `\\{id\\}` substring with the actual token type ID."
      }
    },
    "version": 1
  },
  "userdoc": {
    "kind": "user",
    "methods": {},
    "version": 1
  }
}