{
  "contractName": "PaySystem",
  "abi": [
    {
      "inputs": [],
      "stateMutability": "nonpayable",
      "type": "constructor"
    },
    {
      "anonymous": false,
      "inputs": [
        {
          "indexed": true,
          "internalType": "address",
          "name": "account",
          "type": "address"
        },
        {
          "indexed": true,
          "internalType": "address",
          "name": "operator",
          "type": "address"
        },
        {
          "indexed": false,
          "internalType": "bool",
          "name": "approved",
          "type": "bool"
        }
      ],
      "name": "ApprovalForAll",
      "type": "event"
    },
    {
      "anonymous": false,
      "inputs": [
        {
          "indexed": true,
          "internalType": "address",
          "name": "previousOwner",
          "type": "address"
        },
        {
          "indexed": true,
          "internalType": "address",
          "name": "newOwner",
          "type": "address"
        }
      ],
      "name": "OwnershipTransferred",
      "type": "event"
    },
    {
      "anonymous": false,
      "inputs": [
        {
          "indexed": true,
          "internalType": "address",
          "name": "operator",
          "type": "address"
        },
        {
          "indexed": true,
          "internalType": "address",
          "name": "from",
          "type": "address"
        },
        {
          "indexed": true,
          "internalType": "address",
          "name": "to",
          "type": "address"
        },
        {
          "indexed": false,
          "internalType": "uint256[]",
          "name": "ids",
          "type": "uint256[]"
        },
        {
          "indexed": false,
          "internalType": "uint256[]",
          "name": "values",
          "type": "uint256[]"
        }
      ],
      "name": "TransferBatch",
      "type": "event"
    },
    {
      "anonymous": false,
      "inputs": [
        {
          "indexed": true,
          "internalType": "address",
          "name": "operator",
          "type": "address"
        },
        {
          "indexed": true,
          "internalType": "address",
          "name": "from",
          "type": "address"
        },
        {
          "indexed": true,
          "internalType": "address",
          "name": "to",
          "type": "address"
        },
        {
          "indexed": false,
          "internalType": "uint256",
          "name": "id",
          "type": "uint256"
        },
        {
          "indexed": false,
          "internalType": "uint256",
          "name": "value",
          "type": "uint256"
        }
      ],
      "name": "TransferSingle",
      "type": "event"
    },
    {
      "anonymous": false,
      "inputs": [
        {
          "indexed": false,
          "internalType": "string",
          "name": "value",
          "type": "string"
        },
        {
          "indexed": true,
          "internalType": "uint256",
          "name": "id",
          "type": "uint256"
        }
      ],
      "name": "URI",
      "type": "event"
    },
    {
      "inputs": [
        {
          "internalType": "address",
          "name": "account",
          "type": "address"
        },
        {
          "internalType": "uint256",
          "name": "id",
          "type": "uint256"
        }
      ],
      "name": "balanceOf",
      "outputs": [
        {
          "internalType": "uint256",
          "name": "",
          "type": "uint256"
        }
      ],
      "stateMutability": "view",
      "type": "function",
      "constant": true
    },
    {
      "inputs": [
        {
          "internalType": "address[]",
          "name": "accounts",
          "type": "address[]"
        },
        {
          "internalType": "uint256[]",
          "name": "ids",
          "type": "uint256[]"
        }
      ],
      "name": "balanceOfBatch",
      "outputs": [
        {
          "internalType": "uint256[]",
          "name": "",
          "type": "uint256[]"
        }
      ],
      "stateMutability": "view",
      "type": "function",
      "constant": true
    },
    {
      "inputs": [
        {
          "internalType": "address",
          "name": "account",
          "type": "address"
        },
        {
          "internalType": "address",
          "name": "operator",
          "type": "address"
        }
      ],
      "name": "isApprovedForAll",
      "outputs": [
        {
          "internalType": "bool",
          "name": "",
          "type": "bool"
        }
      ],
      "stateMutability": "view",
      "type": "function",
      "constant": true
    },
    {
      "inputs": [],
      "name": "owner",
      "outputs": [
        {
          "internalType": "address",
          "name": "",
          "type": "address"
        }
      ],
      "stateMutability": "view",
      "type": "function",
      "constant": true
    },
    {
      "inputs": [],
      "name": "renounceOwnership",
      "outputs": [],
      "stateMutability": "nonpayable",
      "type": "function"
    },
    {
      "inputs": [
        {
          "internalType": "address",
          "name": "from",
          "type": "address"
        },
        {
          "internalType": "address",
          "name": "to",
          "type": "address"
        },
        {
          "internalType": "uint256[]",
          "name": "ids",
          "type": "uint256[]"
        },
        {
          "internalType": "uint256[]",
          "name": "amounts",
          "type": "uint256[]"
        },
        {
          "internalType": "bytes",
          "name": "data",
          "type": "bytes"
        }
      ],
      "name": "safeBatchTransferFrom",
      "outputs": [],
      "stateMutability": "nonpayable",
      "type": "function"
    },
    {
      "inputs": [
        {
          "internalType": "address",
          "name": "from",
          "type": "address"
        },
        {
          "internalType": "address",
          "name": "to",
          "type": "address"
        },
        {
          "internalType": "uint256",
          "name": "id",
          "type": "uint256"
        },
        {
          "internalType": "uint256",
          "name": "amount",
          "type": "uint256"
        },
        {
          "internalType": "bytes",
          "name": "data",
          "type": "bytes"
        }
      ],
      "name": "safeTransferFrom",
      "outputs": [],
      "stateMutability": "nonpayable",
      "type": "function"
    },
    {
      "inputs": [
        {
          "internalType": "address",
          "name": "operator",
          "type": "address"
        },
        {
          "internalType": "bool",
          "name": "approved",
          "type": "bool"
        }
      ],
      "name": "setApprovalForAll",
      "outputs": [],
      "stateMutability": "nonpayable",
      "type": "function"
    },
    {
      "inputs": [
        {
          "internalType": "bytes4",
          "name": "interfaceId",
          "type": "bytes4"
        }
      ],
      "name": "supportsInterface",
      "outputs": [
        {
          "internalType": "bool",
          "name": "",
          "type": "bool"
        }
      ],
      "stateMutability": "view",
      "type": "function",
      "constant": true
    },
    {
      "inputs": [
        {
          "internalType": "address",
          "name": "newOwner",
          "type": "address"
        }
      ],
      "name": "transferOwnership",
      "outputs": [],
      "stateMutability": "nonpayable",
      "type": "function"
    },
    {
      "inputs": [
        {
          "internalType": "uint256",
          "name": "",
          "type": "uint256"
        }
      ],
      "name": "uri",
      "outputs": [
        {
          "internalType": "string",
          "name": "",
          "type": "string"
        }
      ],
      "stateMutability": "view",
      "type": "function",
      "constant": true
    },
    {
      "inputs": [
        {
          "internalType": "address",
          "name": "account",
          "type": "address"
        },
        {
          "internalType": "uint256",
          "name": "id",
          "type": "uint256"
        },
        {
          "internalType": "uint256",
          "name": "amount",
          "type": "uint256"
        }
      ],
      "name": "mint",
      "outputs": [],
      "stateMutability": "nonpayable",
      "type": "function"
    },
    {
      "inputs": [
        {
          "internalType": "address",
          "name": "account",
          "type": "address"
        },
        {
          "internalType": "uint256",
          "name": "id",
          "type": "uint256"
        },
        {
          "internalType": "uint256",
          "name": "amount",
          "type": "uint256"
        }
      ],
      "name": "burn",
      "outputs": [],
      "stateMutability": "nonpayable",
      "type": "function"
    },
    {
      "inputs": [
        {
          "internalType": "address",
          "name": "account",
          "type": "address"
        },
        {
          "internalType": "uint256",
          "name": "id",
          "type": "uint256"
        }
      ],
      "name": "getBalance",
      "outputs": [
        {
          "internalType": "uint256",
          "name": "balance",
          "type": "uint256"
        }
      ],
      "stateMutability": "view",
      "type": "function",
      "constant": true
    },
    {
      "inputs": [],
      "name": "getCoinPrice",
      "outputs": [
        {
          "internalType": "uint256",
          "name": "price",
          "type": "uint256"
        }
      ],
      "stateMutability": "view",
      "type": "function",
      "constant": true
    },
    {
      "inputs": [
        {
          "internalType": "uint256",
          "name": "amount",
          "type": "uint256"
        }
      ],
      "name": "deposit",
      "outputs": [],
      "stateMutability": "payable",
      "type": "function",
      "payable": true
    },
    {
      "inputs": [
        {
          "internalType": "address",
          "name": "payTo",
          "type": "address"
        },
        {
          "internalType": "uint256",
          "name": "amount",
          "type": "uint256"
        }
      ],
      "name": "trade",
      "outputs": [],
      "stateMutability": "nonpayable",
      "type": "function"
    }
  ],
  "bytecode": "0x60806040526040518060400160405280600d81526020017f556e7061696420576f726b657200000000000000000000000000000000000000815250600490816200004a9190620009d9565b506040518060400160405280600281526020017f555700000000000000000000000000000000000000000000000000000000000081525060059081620000919190620009d9565b50620f42406006556040518060400160405280601f81526020017f68747470733a2f2f756e70616964576f726b65722e636f6d2f746f6b656e2f0081525060089081620000df9190620009d9565b50348015620000ed57600080fd5b5060088054620000fd90620007c8565b80601f01602080910402602001604051908101604052809291908181526020018280546200012b90620007c8565b80156200017c5780601f1062000150576101008083540402835291602001916200017c565b820191906000526020600020905b8154815290600101906020018083116200015e57829003601f168201915b5050505050620001a162000195620001ee60201b60201c565b620001f660201b60201c565b620001b281620002ba60201b60201c565b50620001d933600060065460405180602001604052806000815250620002cf60201b60201c565b67016345785d8a0000600781905550620010b9565b600033905090565b60008060009054906101000a900473ffffffffffffffffffffffffffffffffffffffff169050816000806101000a81548173ffffffffffffffffffffffffffffffffffffffff021916908373ffffffffffffffffffffffffffffffffffffffff1602179055508173ffffffffffffffffffffffffffffffffffffffff168173ffffffffffffffffffffffffffffffffffffffff167f8be0079c531659141344cd1fd0a4f28419497f9722a3daafe3b4186f6b6457e060405160405180910390a35050565b8060039081620002cb9190620009d9565b5050565b600073ffffffffffffffffffffffffffffffffffffffff168473ffffffffffffffffffffffffffffffffffffffff160362000341576040517f08c379a0000000000000000000000000000000000000000000000000000000008152600401620003389062000b47565b60405180910390fd5b600062000353620001ee60201b60201c565b905060006200036885620004b760201b60201c565b905060006200037d85620004b760201b60201c565b905062000396836000898585896200053860201b60201c565b846001600088815260200190815260200160002060008973ffffffffffffffffffffffffffffffffffffffff1673ffffffffffffffffffffffffffffffffffffffff1681526020019081526020016000206000828254620003f8919062000b98565b925050819055508673ffffffffffffffffffffffffffffffffffffffff16600073ffffffffffffffffffffffffffffffffffffffff168473ffffffffffffffffffffffffffffffffffffffff167fc3d58168c5ae7397731d063d5bbf3d657854427343f4c083240f7aacaa2d0f6289896040516200047892919062000be4565b60405180910390a462000497836000898585896200054060201b60201c565b620004ae836000898989896200054860201b60201c565b50505050505050565b60606000600167ffffffffffffffff811115620004d957620004d86200076a565b5b604051908082528060200260200182016040528015620005085781602001602082028036833780820191505090505b509050828160008151811062000523576200052262000c11565b5b60200260200101818152505080915050919050565b505050505050565b505050505050565b6200056f8473ffffffffffffffffffffffffffffffffffffffff166200073c60201b60201c565b1562000734578373ffffffffffffffffffffffffffffffffffffffff1663f23a6e6187878686866040518663ffffffff1660e01b8152600401620005b895949392919062000d1f565b6020604051808303816000875af1925050508015620005f757506040513d601f19601f82011682018060405250810190620005f4919062000def565b60015b620006a8576200060662000e2e565b806308c379a0036200066957506200061d62000e89565b806200062a57506200066b565b806040517f08c379a000000000000000000000000000000000000000000000000000000000815260040162000660919062000f65565b60405180910390fd5b505b6040517f08c379a00000000000000000000000000000000000000000000000000000000081526004016200069f9062000fff565b60405180910390fd5b63f23a6e6160e01b7bffffffffffffffffffffffffffffffffffffffffffffffffffffffff1916817bffffffffffffffffffffffffffffffffffffffffffffffffffffffff19161462000732576040517f08c379a0000000000000000000000000000000000000000000000000000000008152600401620007299062001097565b60405180910390fd5b505b505050505050565b6000808273ffffffffffffffffffffffffffffffffffffffff163b119050919050565b600081519050919050565b7f4e487b7100000000000000000000000000000000000000000000000000000000600052604160045260246000fd5b7f4e487b7100000000000000000000000000000000000000000000000000000000600052602260045260246000fd5b60006002820490506001821680620007e157607f821691505b602082108103620007f757620007f662000799565b5b50919050565b60008190508160005260206000209050919050565b60006020601f8301049050919050565b600082821b905092915050565b600060088302620008617fffffffffffffffffffffffffffffffffffffffffffffffffffffffffffffffff8262000822565b6200086d868362000822565b95508019841693508086168417925050509392505050565b6000819050919050565b6000819050919050565b6000620008ba620008b4620008ae8462000885565b6200088f565b62000885565b9050919050565b6000819050919050565b620008d68362000899565b620008ee620008e582620008c1565b8484546200082f565b825550505050565b600090565b62000905620008f6565b62000912818484620008cb565b505050565b5b818110156200093a576200092e600082620008fb565b60018101905062000918565b5050565b601f82111562000989576200095381620007fd565b6200095e8462000812565b810160208510156200096e578190505b620009866200097d8562000812565b83018262000917565b50505b505050565b600082821c905092915050565b6000620009ae600019846008026200098e565b1980831691505092915050565b6000620009c983836200099b565b9150826002028217905092915050565b620009e4826200075f565b67ffffffffffffffff81111562000a0057620009ff6200076a565b5b62000a0c8254620007c8565b62000a198282856200093e565b600060209050601f83116001811462000a51576000841562000a3c578287015190505b62000a488582620009bb565b86555062000ab8565b601f19841662000a6186620007fd565b60005b8281101562000a8b5784890151825560018201915060208501945060208101905062000a64565b8683101562000aab578489015162000aa7601f8916826200099b565b8355505b6001600288020188555050505b505050505050565b600082825260208201905092915050565b7f455243313135353a206d696e7420746f20746865207a65726f2061646472657360008201527f7300000000000000000000000000000000000000000000000000000000000000602082015250565b600062000b2f60218362000ac0565b915062000b3c8262000ad1565b604082019050919050565b6000602082019050818103600083015262000b628162000b20565b9050919050565b7f4e487b7100000000000000000000000000000000000000000000000000000000600052601160045260246000fd5b600062000ba58262000885565b915062000bb28362000885565b925082820190508082111562000bcd5762000bcc62000b69565b5b92915050565b62000bde8162000885565b82525050565b600060408201905062000bfb600083018562000bd3565b62000c0a602083018462000bd3565b9392505050565b7f4e487b7100000000000000000000000000000000000000000000000000000000600052603260045260246000fd5b600073ffffffffffffffffffffffffffffffffffffffff82169050919050565b600062000c6d8262000c40565b9050919050565b62000c7f8162000c60565b82525050565b600081519050919050565b600082825260208201905092915050565b60005b8381101562000cc157808201518184015260208101905062000ca4565b60008484015250505050565b6000601f19601f8301169050919050565b600062000ceb8262000c85565b62000cf7818562000c90565b935062000d0981856020860162000ca1565b62000d148162000ccd565b840191505092915050565b600060a08201905062000d36600083018862000c74565b62000d45602083018762000c74565b62000d54604083018662000bd3565b62000d63606083018562000bd3565b818103608083015262000d77818462000cde565b90509695505050505050565b6000604051905090565b600080fd5b60007fffffffff0000000000000000000000000000000000000000000000000000000082169050919050565b62000dc98162000d92565b811462000dd557600080fd5b50565b60008151905062000de98162000dbe565b92915050565b60006020828403121562000e085762000e0762000d8d565b5b600062000e188482850162000dd8565b91505092915050565b60008160e01c9050919050565b600060033d111562000e505760046000803e62000e4d60005162000e21565b90505b90565b62000e5e8262000ccd565b810181811067ffffffffffffffff8211171562000e805762000e7f6200076a565b5b80604052505050565b600060443d1062000f215762000e9e62000d83565b60043d036004823e80513d602482011167ffffffffffffffff8211171562000ec857505062000f21565b808201805167ffffffffffffffff81111562000ee8575050505062000f21565b80602083010160043d03850181111562000f0757505050505062000f21565b62000f188260200185018662000e53565b82955050505050505b90565b600062000f31826200075f565b62000f3d818562000ac0565b935062000f4f81856020860162000ca1565b62000f5a8162000ccd565b840191505092915050565b6000602082019050818103600083015262000f81818462000f24565b905092915050565b7f455243313135353a207472616e7366657220746f206e6f6e2d4552433131353560008201527f526563656976657220696d706c656d656e746572000000000000000000000000602082015250565b600062000fe760348362000ac0565b915062000ff48262000f89565b604082019050919050565b600060208201905081810360008301526200101a8162000fd8565b9050919050565b7f455243313135353a204552433131353552656365697665722072656a6563746560008201527f6420746f6b656e73000000000000000000000000000000000000000000000000602082015250565b60006200107f60288362000ac0565b91506200108c8262001021565b604082019050919050565b60006020820190508181036000830152620010b28162001070565b9050919050565b61377980620010c96000396000f3fe6080604052600436106100fd5760003560e01c8063715018a611610095578063cd0336c011610064578063cd0336c014610335578063e985e9c514610360578063f242432a1461039d578063f2fde38b146103c6578063f5298aca146103ef576100fd565b8063715018a6146102ae5780638da5cb5b146102c5578063a22cb465146102f0578063b6b55f2514610319576100fd565b80632b04e840116100d15780632b04e840146101e25780632eb2c2d61461021f5780634e1273f41461024857806368f8c2a414610285576100fd565b8062fdd58e1461010257806301ffc9a71461013f5780630e89341c1461017c578063156e29f6146101b9575b600080fd5b34801561010e57600080fd5b5061012960048036038101906101249190612035565b610418565b6040516101369190612084565b60405180910390f35b34801561014b57600080fd5b50610166600480360381019061016191906120f7565b6104e1565b604051610173919061213f565b60405180910390f35b34801561018857600080fd5b506101a3600480360381019061019e919061215a565b6105c3565b6040516101b09190612217565b60405180910390f35b3480156101c557600080fd5b506101e060048036038101906101db9190612239565b610657565b005b3480156101ee57600080fd5b5061020960048036038101906102049190612035565b61067f565b6040516102169190612084565b60405180910390f35b34801561022b57600080fd5b5061024660048036038101906102419190612489565b610708565b005b34801561025457600080fd5b5061026f600480360381019061026a919061261b565b6107a9565b60405161027c9190612751565b60405180910390f35b34801561029157600080fd5b506102ac60048036038101906102a79190612035565b6108c2565b005b3480156102ba57600080fd5b506102c3610a5e565b005b3480156102d157600080fd5b506102da610a72565b6040516102e79190612782565b60405180910390f35b3480156102fc57600080fd5b50610317600480360381019061031291906127c9565b610a9b565b005b610333600480360381019061032e919061215a565b610ab1565b005b34801561034157600080fd5b5061034a610c7d565b6040516103579190612084565b60405180910390f35b34801561036c57600080fd5b5061038760048036038101906103829190612809565b610c87565b604051610394919061213f565b60405180910390f35b3480156103a957600080fd5b506103c460048036038101906103bf9190612849565b610d1b565b005b3480156103d257600080fd5b506103ed60048036038101906103e891906128e0565b610dbc565b005b3480156103fb57600080fd5b5061041660048036038101906104119190612239565b610e3f565b005b60008073ffffffffffffffffffffffffffffffffffffffff168373ffffffffffffffffffffffffffffffffffffffff1603610488576040517f08c379a000000000000000000000000000000000000000000000000000000000815260040161047f9061297f565b60405180910390fd5b6001600083815260200190815260200160002060008473ffffffffffffffffffffffffffffffffffffffff1673ffffffffffffffffffffffffffffffffffffffff16815260200190815260200160002054905092915050565b60007fd9b67a26000000000000000000000000000000000000000000000000000000007bffffffffffffffffffffffffffffffffffffffffffffffffffffffff1916827bffffffffffffffffffffffffffffffffffffffffffffffffffffffff191614806105ac57507f0e89341c000000000000000000000000000000000000000000000000000000007bffffffffffffffffffffffffffffffffffffffffffffffffffffffff1916827bffffffffffffffffffffffffffffffffffffffffffffffffffffffff1916145b806105bc57506105bb82610e57565b5b9050919050565b6060600380546105d2906129ce565b80601f01602080910402602001604051908101604052809291908181526020018280546105fe906129ce565b801561064b5780601f106106205761010080835404028352916020019161064b565b820191906000526020600020905b81548152906001019060200180831161062e57829003601f168201915b50505050509050919050565b61065f610ec1565b61067a83838360405180602001604052806000815250610f3f565b505050565b6000610689610a72565b73ffffffffffffffffffffffffffffffffffffffff163373ffffffffffffffffffffffffffffffffffffffff16036106f6576040517f08c379a00000000000000000000000000000000000000000000000000000000081526004016106ed90612a71565b60405180910390fd5b6107008383610418565b905092915050565b6107106110f0565b73ffffffffffffffffffffffffffffffffffffffff168573ffffffffffffffffffffffffffffffffffffffff1614806107565750610755856107506110f0565b610c87565b5b610795576040517f08c379a000000000000000000000000000000000000000000000000000000000815260040161078c90612b03565b60405180910390fd5b6107a285858585856110f8565b5050505050565b606081518351146107ef576040517f08c379a00000000000000000000000000000000000000000000000000000000081526004016107e690612b95565b60405180910390fd5b6000835167ffffffffffffffff81111561080c5761080b612291565b5b60405190808252806020026020018201604052801561083a5781602001602082028036833780820191505090505b50905060005b84518110156108b75761088785828151811061085f5761085e612bb5565b5b602002602001015185838151811061087a57610879612bb5565b5b6020026020010151610418565b82828151811061089a57610899612bb5565b5b602002602001018181525050806108b090612c13565b9050610840565b508091505092915050565b6108ca610a72565b73ffffffffffffffffffffffffffffffffffffffff163373ffffffffffffffffffffffffffffffffffffffff1603610937576040517f08c379a000000000000000000000000000000000000000000000000000000000815260040161092e90612a71565b60405180910390fd5b806000811161097b576040517f08c379a000000000000000000000000000000000000000000000000000000000815260040161097290612ca7565b60405180910390fd5b3373ffffffffffffffffffffffffffffffffffffffff168373ffffffffffffffffffffffffffffffffffffffff16036109e9576040517f08c379a00000000000000000000000000000000000000000000000000000000081526004016109e090612d13565b60405180910390fd5b60006109f633600061067f565b905082811015610a3b576040517f08c379a0000000000000000000000000000000000000000000000000000000008152600401610a3290612d7f565b60405180910390fd5b610a5833856000866040518060200160405280600081525061141c565b50505050565b610a66610ec1565b610a7060006116ba565b565b60008060009054906101000a900473ffffffffffffffffffffffffffffffffffffffff16905090565b610aad610aa66110f0565b838361177e565b5050565b610ab9610a72565b73ffffffffffffffffffffffffffffffffffffffff163373ffffffffffffffffffffffffffffffffffffffff1603610b26576040517f08c379a0000000000000000000000000000000000000000000000000000000008152600401610b1d90612a71565b60405180910390fd5b8060008111610b6a576040517f08c379a0000000000000000000000000000000000000000000000000000000008152600401610b6190612ca7565b60405180910390fd5b81610b7d610b76610a72565b6000610418565b1015610bbe576040517f08c379a0000000000000000000000000000000000000000000000000000000008152600401610bb590612deb565b60405180910390fd5b60003411610c01576040517f08c379a0000000000000000000000000000000000000000000000000000000008152600401610bf890612e57565b60405180910390fd5b6000610c0b610a72565b90508073ffffffffffffffffffffffffffffffffffffffff166108fc349081150290604051600060405180830381858888f19350505050158015610c53573d6000803e3d6000fd5b50610c78610c5f610a72565b336000866040518060200160405280600081525061141c565b505050565b6000600754905090565b6000600260008473ffffffffffffffffffffffffffffffffffffffff1673ffffffffffffffffffffffffffffffffffffffff16815260200190815260200160002060008373ffffffffffffffffffffffffffffffffffffffff1673ffffffffffffffffffffffffffffffffffffffff16815260200190815260200160002060009054906101000a900460ff16905092915050565b610d236110f0565b73ffffffffffffffffffffffffffffffffffffffff168573ffffffffffffffffffffffffffffffffffffffff161480610d695750610d6885610d636110f0565b610c87565b5b610da8576040517f08c379a0000000000000000000000000000000000000000000000000000000008152600401610d9f90612b03565b60405180910390fd5b610db5858585858561141c565b5050505050565b610dc4610ec1565b600073ffffffffffffffffffffffffffffffffffffffff168173ffffffffffffffffffffffffffffffffffffffff1603610e33576040517f08c379a0000000000000000000000000000000000000000000000000000000008152600401610e2a90612ee9565b60405180910390fd5b610e3c816116ba565b50565b610e47610ec1565b610e528383836118ea565b505050565b60007f01ffc9a7000000000000000000000000000000000000000000000000000000007bffffffffffffffffffffffffffffffffffffffffffffffffffffffff1916827bffffffffffffffffffffffffffffffffffffffffffffffffffffffff1916149050919050565b610ec96110f0565b73ffffffffffffffffffffffffffffffffffffffff16610ee7610a72565b73ffffffffffffffffffffffffffffffffffffffff1614610f3d576040517f08c379a0000000000000000000000000000000000000000000000000000000008152600401610f3490612f55565b60405180910390fd5b565b600073ffffffffffffffffffffffffffffffffffffffff168473ffffffffffffffffffffffffffffffffffffffff1603610fae576040517f08c379a0000000000000000000000000000000000000000000000000000000008152600401610fa590612fe7565b60405180910390fd5b6000610fb86110f0565b90506000610fc585611b32565b90506000610fd285611b32565b9050610fe383600089858589611bac565b846001600088815260200190815260200160002060008973ffffffffffffffffffffffffffffffffffffffff1673ffffffffffffffffffffffffffffffffffffffff16815260200190815260200160002060008282546110439190613007565b925050819055508673ffffffffffffffffffffffffffffffffffffffff16600073ffffffffffffffffffffffffffffffffffffffff168473ffffffffffffffffffffffffffffffffffffffff167fc3d58168c5ae7397731d063d5bbf3d657854427343f4c083240f7aacaa2d0f6289896040516110c192919061303b565b60405180910390a46110d883600089858589611bb4565b6110e783600089898989611bbc565b50505050505050565b600033905090565b815183511461113c576040517f08c379a0000000000000000000000000000000000000000000000000000000008152600401611133906130d6565b60405180910390fd5b600073ffffffffffffffffffffffffffffffffffffffff168473ffffffffffffffffffffffffffffffffffffffff16036111ab576040517f08c379a00000000000000000000000000000000000000000000000000000000081526004016111a290613168565b60405180910390fd5b60006111b56110f0565b90506111c5818787878787611bac565b60005b84518110156113795760008582815181106111e6576111e5612bb5565b5b60200260200101519050600085838151811061120557611204612bb5565b5b6020026020010151905060006001600084815260200190815260200160002060008b73ffffffffffffffffffffffffffffffffffffffff1673ffffffffffffffffffffffffffffffffffffffff168152602001908152602001600020549050818110156112a7576040517f08c379a000000000000000000000000000000000000000000000000000000000815260040161129e906131fa565b60405180910390fd5b8181036001600085815260200190815260200160002060008c73ffffffffffffffffffffffffffffffffffffffff1673ffffffffffffffffffffffffffffffffffffffff16815260200190815260200160002081905550816001600085815260200190815260200160002060008b73ffffffffffffffffffffffffffffffffffffffff1673ffffffffffffffffffffffffffffffffffffffff168152602001908152602001600020600082825461135e9190613007565b925050819055505050508061137290612c13565b90506111c8565b508473ffffffffffffffffffffffffffffffffffffffff168673ffffffffffffffffffffffffffffffffffffffff168273ffffffffffffffffffffffffffffffffffffffff167f4a39dc06d4c0dbc64b70af90fd698a233a518aa5d07e595d983b8c0526c8f7fb87876040516113f092919061321a565b60405180910390a4611406818787878787611bb4565b611414818787878787611d93565b505050505050565b600073ffffffffffffffffffffffffffffffffffffffff168473ffffffffffffffffffffffffffffffffffffffff160361148b576040517f08c379a000000000000000000000000000000000000000000000000000000000815260040161148290613168565b60405180910390fd5b60006114956110f0565b905060006114a285611b32565b905060006114af85611b32565b90506114bf838989858589611bac565b60006001600088815260200190815260200160002060008a73ffffffffffffffffffffffffffffffffffffffff1673ffffffffffffffffffffffffffffffffffffffff16815260200190815260200160002054905085811015611557576040517f08c379a000000000000000000000000000000000000000000000000000000000815260040161154e906131fa565b60405180910390fd5b8581036001600089815260200190815260200160002060008b73ffffffffffffffffffffffffffffffffffffffff1673ffffffffffffffffffffffffffffffffffffffff16815260200190815260200160002081905550856001600089815260200190815260200160002060008a73ffffffffffffffffffffffffffffffffffffffff1673ffffffffffffffffffffffffffffffffffffffff168152602001908152602001600020600082825461160e9190613007565b925050819055508773ffffffffffffffffffffffffffffffffffffffff168973ffffffffffffffffffffffffffffffffffffffff168573ffffffffffffffffffffffffffffffffffffffff167fc3d58168c5ae7397731d063d5bbf3d657854427343f4c083240f7aacaa2d0f628a8a60405161168b92919061303b565b60405180910390a46116a1848a8a86868a611bb4565b6116af848a8a8a8a8a611bbc565b505050505050505050565b60008060009054906101000a900473ffffffffffffffffffffffffffffffffffffffff169050816000806101000a81548173ffffffffffffffffffffffffffffffffffffffff021916908373ffffffffffffffffffffffffffffffffffffffff1602179055508173ffffffffffffffffffffffffffffffffffffffff168173ffffffffffffffffffffffffffffffffffffffff167f8be0079c531659141344cd1fd0a4f28419497f9722a3daafe3b4186f6b6457e060405160405180910390a35050565b8173ffffffffffffffffffffffffffffffffffffffff168373ffffffffffffffffffffffffffffffffffffffff16036117ec576040517f08c379a00000000000000000000000000000000000000000000000000000000081526004016117e3906132c3565b60405180910390fd5b80600260008573ffffffffffffffffffffffffffffffffffffffff1673ffffffffffffffffffffffffffffffffffffffff16815260200190815260200160002060008473ffffffffffffffffffffffffffffffffffffffff1673ffffffffffffffffffffffffffffffffffffffff16815260200190815260200160002060006101000a81548160ff0219169083151502179055508173ffffffffffffffffffffffffffffffffffffffff168373ffffffffffffffffffffffffffffffffffffffff167f17307eab39ab6107e8899845ad3d59bd9653f200f220920489ca2b5937696c31836040516118dd919061213f565b60405180910390a3505050565b600073ffffffffffffffffffffffffffffffffffffffff168373ffffffffffffffffffffffffffffffffffffffff1603611959576040517f08c379a000000000000000000000000000000000000000000000000000000000815260040161195090613355565b60405180910390fd5b60006119636110f0565b9050600061197084611b32565b9050600061197d84611b32565b905061199d83876000858560405180602001604052806000815250611bac565b60006001600087815260200190815260200160002060008873ffffffffffffffffffffffffffffffffffffffff1673ffffffffffffffffffffffffffffffffffffffff16815260200190815260200160002054905084811015611a35576040517f08c379a0000000000000000000000000000000000000000000000000000000008152600401611a2c906133e7565b60405180910390fd5b8481036001600088815260200190815260200160002060008973ffffffffffffffffffffffffffffffffffffffff1673ffffffffffffffffffffffffffffffffffffffff16815260200190815260200160002081905550600073ffffffffffffffffffffffffffffffffffffffff168773ffffffffffffffffffffffffffffffffffffffff168573ffffffffffffffffffffffffffffffffffffffff167fc3d58168c5ae7397731d063d5bbf3d657854427343f4c083240f7aacaa2d0f628989604051611b0392919061303b565b60405180910390a4611b2984886000868660405180602001604052806000815250611bb4565b50505050505050565b60606000600167ffffffffffffffff811115611b5157611b50612291565b5b604051908082528060200260200182016040528015611b7f5781602001602082028036833780820191505090505b5090508281600081518110611b9757611b96612bb5565b5b60200260200101818152505080915050919050565b505050505050565b505050505050565b611bdb8473ffffffffffffffffffffffffffffffffffffffff16611f6a565b15611d8b578373ffffffffffffffffffffffffffffffffffffffff1663f23a6e6187878686866040518663ffffffff1660e01b8152600401611c2195949392919061345c565b6020604051808303816000875af1925050508015611c5d57506040513d601f19601f82011682018060405250810190611c5a91906134cb565b60015b611d0257611c69613505565b806308c379a003611cc55750611c7d613527565b80611c885750611cc7565b806040517f08c379a0000000000000000000000000000000000000000000000000000000008152600401611cbc9190612217565b60405180910390fd5b505b6040517f08c379a0000000000000000000000000000000000000000000000000000000008152600401611cf990613629565b60405180910390fd5b63f23a6e6160e01b7bffffffffffffffffffffffffffffffffffffffffffffffffffffffff1916817bffffffffffffffffffffffffffffffffffffffffffffffffffffffff191614611d89576040517f08c379a0000000000000000000000000000000000000000000000000000000008152600401611d80906136bb565b60405180910390fd5b505b505050505050565b611db28473ffffffffffffffffffffffffffffffffffffffff16611f6a565b15611f62578373ffffffffffffffffffffffffffffffffffffffff1663bc197c8187878686866040518663ffffffff1660e01b8152600401611df89594939291906136db565b6020604051808303816000875af1925050508015611e3457506040513d601f19601f82011682018060405250810190611e3191906134cb565b60015b611ed957611e40613505565b806308c379a003611e9c5750611e54613527565b80611e5f5750611e9e565b806040517f08c379a0000000000000000000000000000000000000000000000000000000008152600401611e939190612217565b60405180910390fd5b505b6040517f08c379a0000000000000000000000000000000000000000000000000000000008152600401611ed090613629565b60405180910390fd5b63bc197c8160e01b7bffffffffffffffffffffffffffffffffffffffffffffffffffffffff1916817bffffffffffffffffffffffffffffffffffffffffffffffffffffffff191614611f60576040517f08c379a0000000000000000000000000000000000000000000000000000000008152600401611f57906136bb565b60405180910390fd5b505b505050505050565b6000808273ffffffffffffffffffffffffffffffffffffffff163b119050919050565b6000604051905090565b600080fd5b600080fd5b600073ffffffffffffffffffffffffffffffffffffffff82169050919050565b6000611fcc82611fa1565b9050919050565b611fdc81611fc1565b8114611fe757600080fd5b50565b600081359050611ff981611fd3565b92915050565b6000819050919050565b61201281611fff565b811461201d57600080fd5b50565b60008135905061202f81612009565b92915050565b6000806040838503121561204c5761204b611f97565b5b600061205a85828601611fea565b925050602061206b85828601612020565b9150509250929050565b61207e81611fff565b82525050565b60006020820190506120996000830184612075565b92915050565b60007fffffffff0000000000000000000000000000000000000000000000000000000082169050919050565b6120d48161209f565b81146120df57600080fd5b50565b6000813590506120f1816120cb565b92915050565b60006020828403121561210d5761210c611f97565b5b600061211b848285016120e2565b91505092915050565b60008115159050919050565b61213981612124565b82525050565b60006020820190506121546000830184612130565b92915050565b6000602082840312156121705761216f611f97565b5b600061217e84828501612020565b91505092915050565b600081519050919050565b600082825260208201905092915050565b60005b838110156121c15780820151818401526020810190506121a6565b60008484015250505050565b6000601f19601f8301169050919050565b60006121e982612187565b6121f38185612192565b93506122038185602086016121a3565b61220c816121cd565b840191505092915050565b6000602082019050818103600083015261223181846121de565b905092915050565b60008060006060848603121561225257612251611f97565b5b600061226086828701611fea565b935050602061227186828701612020565b925050604061228286828701612020565b9150509250925092565b600080fd5b7f4e487b7100000000000000000000000000000000000000000000000000000000600052604160045260246000fd5b6122c9826121cd565b810181811067ffffffffffffffff821117156122e8576122e7612291565b5b80604052505050565b60006122fb611f8d565b905061230782826122c0565b919050565b600067ffffffffffffffff82111561232757612326612291565b5b602082029050602081019050919050565b600080fd5b600061235061234b8461230c565b6122f1565b9050808382526020820190506020840283018581111561237357612372612338565b5b835b8181101561239c57806123888882612020565b845260208401935050602081019050612375565b5050509392505050565b600082601f8301126123bb576123ba61228c565b5b81356123cb84826020860161233d565b91505092915050565b600080fd5b600067ffffffffffffffff8211156123f4576123f3612291565b5b6123fd826121cd565b9050602081019050919050565b82818337600083830152505050565b600061242c612427846123d9565b6122f1565b905082815260208101848484011115612448576124476123d4565b5b61245384828561240a565b509392505050565b600082601f8301126124705761246f61228c565b5b8135612480848260208601612419565b91505092915050565b600080600080600060a086880312156124a5576124a4611f97565b5b60006124b388828901611fea565b95505060206124c488828901611fea565b945050604086013567ffffffffffffffff8111156124e5576124e4611f9c565b5b6124f1888289016123a6565b935050606086013567ffffffffffffffff81111561251257612511611f9c565b5b61251e888289016123a6565b925050608086013567ffffffffffffffff81111561253f5761253e611f9c565b5b61254b8882890161245b565b9150509295509295909350565b600067ffffffffffffffff82111561257357612572612291565b5b602082029050602081019050919050565b600061259761259284612558565b6122f1565b905080838252602082019050602084028301858111156125ba576125b9612338565b5b835b818110156125e357806125cf8882611fea565b8452602084019350506020810190506125bc565b5050509392505050565b600082601f8301126126025761260161228c565b5b8135612612848260208601612584565b91505092915050565b6000806040838503121561263257612631611f97565b5b600083013567ffffffffffffffff8111156126505761264f611f9c565b5b61265c858286016125ed565b925050602083013567ffffffffffffffff81111561267d5761267c611f9c565b5b612689858286016123a6565b9150509250929050565b600081519050919050565b600082825260208201905092915050565b6000819050602082019050919050565b6126c881611fff565b82525050565b60006126da83836126bf565b60208301905092915050565b6000602082019050919050565b60006126fe82612693565b612708818561269e565b9350612713836126af565b8060005b8381101561274457815161272b88826126ce565b9750612736836126e6565b925050600181019050612717565b5085935050505092915050565b6000602082019050818103600083015261276b81846126f3565b905092915050565b61277c81611fc1565b82525050565b60006020820190506127976000830184612773565b92915050565b6127a681612124565b81146127b157600080fd5b50565b6000813590506127c38161279d565b92915050565b600080604083850312156127e0576127df611f97565b5b60006127ee85828601611fea565b92505060206127ff858286016127b4565b9150509250929050565b600080604083850312156128205761281f611f97565b5b600061282e85828601611fea565b925050602061283f85828601611fea565b9150509250929050565b600080600080600060a0868803121561286557612864611f97565b5b600061287388828901611fea565b955050602061288488828901611fea565b945050604061289588828901612020565b93505060606128a688828901612020565b925050608086013567ffffffffffffffff8111156128c7576128c6611f9c565b5b6128d38882890161245b565b9150509295509295909350565b6000602082840312156128f6576128f5611f97565b5b600061290484828501611fea565b91505092915050565b7f455243313135353a2061646472657373207a65726f206973206e6f742061207660008201527f616c6964206f776e657200000000000000000000000000000000000000000000602082015250565b6000612969602a83612192565b91506129748261290d565b604082019050919050565b600060208201905081810360008301526129988161295c565b9050919050565b7f4e487b7100000000000000000000000000000000000000000000000000000000600052602260045260246000fd5b600060028204905060018216806129e657607f821691505b6020821081036129f9576129f861299f565b5b50919050565b7f4f6e6c792075736572732063616e2063616c6c20746869732066756e6374696f60008201527f6e00000000000000000000000000000000000000000000000000000000000000602082015250565b6000612a5b602183612192565b9150612a66826129ff565b604082019050919050565b60006020820190508181036000830152612a8a81612a4e565b9050919050565b7f455243313135353a2063616c6c6572206973206e6f7420746f6b656e206f776e60008201527f6572206f7220617070726f766564000000000000000000000000000000000000602082015250565b6000612aed602e83612192565b9150612af882612a91565b604082019050919050565b60006020820190508181036000830152612b1c81612ae0565b9050919050565b7f455243313135353a206163636f756e747320616e6420696473206c656e67746860008201527f206d69736d617463680000000000000000000000000000000000000000000000602082015250565b6000612b7f602983612192565b9150612b8a82612b23565b604082019050919050565b60006020820190508181036000830152612bae81612b72565b9050919050565b7f4e487b7100000000000000000000000000000000000000000000000000000000600052603260045260246000fd5b7f4e487b7100000000000000000000000000000000000000000000000000000000600052601160045260246000fd5b6000612c1e82611fff565b91507fffffffffffffffffffffffffffffffffffffffffffffffffffffffffffffffff8203612c5057612c4f612be4565b5b600182019050919050565b7f4d6f6e6579206d7573742062652067726561746572207468616e207a65726f00600082015250565b6000612c91601f83612192565b9150612c9c82612c5b565b602082019050919050565b60006020820190508181036000830152612cc081612c84565b9050919050565b7f43616e6e6f7420747261646520746f6b656e7320746f20796f757273656c6600600082015250565b6000612cfd601f83612192565b9150612d0882612cc7565b602082019050919050565b60006020820190508181036000830152612d2c81612cf0565b9050919050565b7f496e73756666696369656e7420746f6b656e2062616c616e6365000000000000600082015250565b6000612d69601a83612192565b9150612d7482612d33565b602082019050919050565b60006020820190508181036000830152612d9881612d5c565b9050919050565b7f496e73756666696369656e742062616c616e6365206f6620746f6b656e000000600082015250565b6000612dd5601d83612192565b9150612de082612d9f565b602082019050919050565b60006020820190508181036000830152612e0481612dc8565b9050919050565b7f496e76616c696420616d6f756e74000000000000000000000000000000000000600082015250565b6000612e41600e83612192565b9150612e4c82612e0b565b602082019050919050565b60006020820190508181036000830152612e7081612e34565b9050919050565b7f4f776e61626c653a206e6577206f776e657220697320746865207a65726f206160008201527f6464726573730000000000000000000000000000000000000000000000000000602082015250565b6000612ed3602683612192565b9150612ede82612e77565b604082019050919050565b60006020820190508181036000830152612f0281612ec6565b9050919050565b7f4f776e61626c653a2063616c6c6572206973206e6f7420746865206f776e6572600082015250565b6000612f3f602083612192565b9150612f4a82612f09565b602082019050919050565b60006020820190508181036000830152612f6e81612f32565b9050919050565b7f455243313135353a206d696e7420746f20746865207a65726f2061646472657360008201527f7300000000000000000000000000000000000000000000000000000000000000602082015250565b6000612fd1602183612192565b9150612fdc82612f75565b604082019050919050565b6000602082019050818103600083015261300081612fc4565b9050919050565b600061301282611fff565b915061301d83611fff565b925082820190508082111561303557613034612be4565b5b92915050565b60006040820190506130506000830185612075565b61305d6020830184612075565b9392505050565b7f455243313135353a2069647320616e6420616d6f756e7473206c656e6774682060008201527f6d69736d61746368000000000000000000000000000000000000000000000000602082015250565b60006130c0602883612192565b91506130cb82613064565b604082019050919050565b600060208201905081810360008301526130ef816130b3565b9050919050565b7f455243313135353a207472616e7366657220746f20746865207a65726f20616460008201527f6472657373000000000000000000000000000000000000000000000000000000602082015250565b6000613152602583612192565b915061315d826130f6565b604082019050919050565b6000602082019050818103600083015261318181613145565b9050919050565b7f455243313135353a20696e73756666696369656e742062616c616e636520666f60008201527f72207472616e7366657200000000000000000000000000000000000000000000602082015250565b60006131e4602a83612192565b91506131ef82613188565b604082019050919050565b60006020820190508181036000830152613213816131d7565b9050919050565b6000604082019050818103600083015261323481856126f3565b9050818103602083015261324881846126f3565b90509392505050565b7f455243313135353a2073657474696e6720617070726f76616c2073746174757360008201527f20666f722073656c660000000000000000000000000000000000000000000000602082015250565b60006132ad602983612192565b91506132b882613251565b604082019050919050565b600060208201905081810360008301526132dc816132a0565b9050919050565b7f455243313135353a206275726e2066726f6d20746865207a65726f206164647260008201527f6573730000000000000000000000000000000000000000000000000000000000602082015250565b600061333f602383612192565b915061334a826132e3565b604082019050919050565b6000602082019050818103600083015261336e81613332565b9050919050565b7f455243313135353a206275726e20616d6f756e7420657863656564732062616c60008201527f616e636500000000000000000000000000000000000000000000000000000000602082015250565b60006133d1602483612192565b91506133dc82613375565b604082019050919050565b60006020820190508181036000830152613400816133c4565b9050919050565b600081519050919050565b600082825260208201905092915050565b600061342e82613407565b6134388185613412565b93506134488185602086016121a3565b613451816121cd565b840191505092915050565b600060a0820190506134716000830188612773565b61347e6020830187612773565b61348b6040830186612075565b6134986060830185612075565b81810360808301526134aa8184613423565b90509695505050505050565b6000815190506134c5816120cb565b92915050565b6000602082840312156134e1576134e0611f97565b5b60006134ef848285016134b6565b91505092915050565b60008160e01c9050919050565b600060033d11156135245760046000803e6135216000516134f8565b90505b90565b600060443d106135b457613539611f8d565b60043d036004823e80513d602482011167ffffffffffffffff821117156135615750506135b4565b808201805167ffffffffffffffff81111561357f57505050506135b4565b80602083010160043d03850181111561359c5750505050506135b4565b6135ab826020018501866122c0565b82955050505050505b90565b7f455243313135353a207472616e7366657220746f206e6f6e2d4552433131353560008201527f526563656976657220696d706c656d656e746572000000000000000000000000602082015250565b6000613613603483612192565b915061361e826135b7565b604082019050919050565b6000602082019050818103600083015261364281613606565b9050919050565b7f455243313135353a204552433131353552656365697665722072656a6563746560008201527f6420746f6b656e73000000000000000000000000000000000000000000000000602082015250565b60006136a5602883612192565b91506136b082613649565b604082019050919050565b600060208201905081810360008301526136d481613698565b9050919050565b600060a0820190506136f06000830188612773565b6136fd6020830187612773565b818103604083015261370f81866126f3565b9050818103606083015261372381856126f3565b905081810360808301526137378184613423565b9050969550505050505056fea2646970667358221220f9ac8d305fad8f3c211fe52a5cee01ff91c6d9e881a2f3dc80d03a87e13474c464736f6c63430008130033",
  "immutableReferences": {},
  "source": "// SPDX-License-Identifier: GPL-3.0\npragma solidity ^0.8.0;\n\nimport \"@openzeppelin/contracts/token/ERC1155/ERC1155.sol\";\nimport \"@openzeppelin/contracts/utils/Strings.sol\";\nimport \"@openzeppelin/contracts/access/Ownable.sol\";\n\n\ncontract PaySystem is Ownable, ERC1155 {\n\n    string private name = \"Unpaid Worker\";\n    string private symbol = \"UW\";\n    uint256 private totalSupply = 1000000;\n    uint256 private coinPrice;\n    //0\n    // uint256 public constant tokenId = 0;\n\n    //\n    string private baseURI= \"https://unpaidWorker.com/token/\";\n\n    // mapping(address => mapping(address => uint256)) allowed;\n\n    constructor() ERC1155(baseURI) {\n        _mint(msg.sender, 0, totalSupply, \"\");\n        coinPrice = 0.1 ether;\n    }\n\n    modifier onlyUser() {\n        require(msg.sender != owner(), \"Only users can call this function\");\n        _;\n    }\n\n    modifier moneyGreaterThanZero(uint value) {\n        require(value > 0, \"Money must be greater than zero\");\n        _;\n    }\n\n    function mint(address account, uint256 id, uint256 amount) public onlyOwner {\n        _mint(account, id, amount, \"\");\n    }\n\n    function burn(address account, uint256 id, uint256 amount) public onlyOwner {\n        _burn(account, id, amount);\n    }\n    //id0\n    function getBalance(address account, uint256 id) public view onlyUser returns (uint256 balance) {\n        balance = balanceOf(account, id);\n    }\n    function getCoinPrice() public view returns (uint256 price) {\n        price = coinPrice;\n    }\n\n    function deposit(uint amount) public payable onlyUser moneyGreaterThanZero(amount) {\n        require(balanceOf(owner(), 0) >= amount, \"Insufficient balance of token\");\n        require(msg.value > 0, \"Invalid amount\");\n        address payable ownerAddress = payable(owner());\n        ownerAddress.transfer(msg.value);\n        _safeTransferFrom(owner(), msg.sender, 0, amount, \"\");\n    }\n\n    function trade(address payTo, uint amount) public onlyUser moneyGreaterThanZero(amount) {\n        require(payTo != msg.sender, \"Cannot trade tokens to yourself\");\n        uint tokenBalance = getBalance(msg.sender, 0);\n        require(tokenBalance >= amount, \"Insufficient token balance\");\n        _safeTransferFrom(msg.sender, payTo, 0, amount, \"\");\n    }\n\n\n}\n\n",
  "sourcePath": "/Users/chuan/Documents/Parking/Parking-contract/contracts/PaySystem.sol",
  "compiler": {
    "name": "solc",
    "version": "0.8.19+commit.7dd6d404.Emscripten.clang"
  },
  "schemaVersion": "3.4.13",
  "updatedAt": "2023-04-27T17:36:29.939Z",
  "networkType": "ethereum",
  "devdoc": {
    "events": {
      "ApprovalForAll(address,address,bool)": {
        "details": "Emitted when `account` grants or revokes permission to `operator` to transfer their tokens, according to `approved`."
      },
      "TransferBatch(address,address,address,uint256[],uint256[])": {
        "details": "Equivalent to multiple {TransferSingle} events, where `operator`, `from` and `to` are the same for all transfers."
      },
      "TransferSingle(address,address,address,uint256,uint256)": {
        "details": "Emitted when `value` tokens of token type `id` are transferred from `from` to `to` by `operator`."
      },
      "URI(string,uint256)": {
        "details": "Emitted when the URI for token type `id` changes to `value`, if it is a non-programmatic URI. If an {URI} event was emitted for `id`, the standard https://eips.ethereum.org/EIPS/eip-1155#metadata-extensions[guarantees] that `value` will equal the value returned by {IERC1155MetadataURI-uri}."
      }
    },
    "kind": "dev",
    "methods": {
      "balanceOf(address,uint256)": {
        "details": "See {IERC1155-balanceOf}. Requirements: - `account` cannot be the zero address."
      },
      "balanceOfBatch(address[],uint256[])": {
        "details": "See {IERC1155-balanceOfBatch}. Requirements: - `accounts` and `ids` must have the same length."
      },
      "isApprovedForAll(address,address)": {
        "details": "See {IERC1155-isApprovedForAll}."
      },
      "owner()": {
        "details": "Returns the address of the current owner."
      },
      "renounceOwnership()": {
        "details": "Leaves the contract without owner. It will not be possible to call `onlyOwner` functions anymore. Can only be called by the current owner. NOTE: Renouncing ownership will leave the contract without an owner, thereby removing any functionality that is only available to the owner."
      },
      "safeBatchTransferFrom(address,address,uint256[],uint256[],bytes)": {
        "details": "See {IERC1155-safeBatchTransferFrom}."
      },
      "safeTransferFrom(address,address,uint256,uint256,bytes)": {
        "details": "See {IERC1155-safeTransferFrom}."
      },
      "setApprovalForAll(address,bool)": {
        "details": "See {IERC1155-setApprovalForAll}."
      },
      "supportsInterface(bytes4)": {
        "details": "See {IERC165-supportsInterface}."
      },
      "transferOwnership(address)": {
        "details": "Transfers ownership of the contract to a new account (`newOwner`). Can only be called by the current owner."
      },
      "uri(uint256)": {
        "details": "See {IERC1155MetadataURI-uri}. This implementation returns the same URI for *all* token types. It relies on the token type ID substitution mechanism https://eips.ethereum.org/EIPS/eip-1155#metadata[defined in the EIP]. Clients calling this function must replace the `\\{id\\}` substring with the actual token type ID."
      }
    },
    "version": 1
  },
  "userdoc": {
    "kind": "user",
    "methods": {},
    "version": 1
  }
}