{
  "contractName": "PaySystem",
  "abi": [
    {
      "inputs": [],
      "stateMutability": "nonpayable",
      "type": "constructor"
    },
    {
      "anonymous": false,
      "inputs": [
        {
          "indexed": true,
          "internalType": "address",
          "name": "account",
          "type": "address"
        },
        {
          "indexed": true,
          "internalType": "address",
          "name": "operator",
          "type": "address"
        },
        {
          "indexed": false,
          "internalType": "bool",
          "name": "approved",
          "type": "bool"
        }
      ],
      "name": "ApprovalForAll",
      "type": "event"
    },
    {
      "anonymous": false,
      "inputs": [
        {
          "indexed": true,
          "internalType": "address",
          "name": "previousOwner",
          "type": "address"
        },
        {
          "indexed": true,
          "internalType": "address",
          "name": "newOwner",
          "type": "address"
        }
      ],
      "name": "OwnershipTransferred",
      "type": "event"
    },
    {
      "anonymous": false,
      "inputs": [
        {
          "indexed": true,
          "internalType": "address",
          "name": "operator",
          "type": "address"
        },
        {
          "indexed": true,
          "internalType": "address",
          "name": "from",
          "type": "address"
        },
        {
          "indexed": true,
          "internalType": "address",
          "name": "to",
          "type": "address"
        },
        {
          "indexed": false,
          "internalType": "uint256[]",
          "name": "ids",
          "type": "uint256[]"
        },
        {
          "indexed": false,
          "internalType": "uint256[]",
          "name": "values",
          "type": "uint256[]"
        }
      ],
      "name": "TransferBatch",
      "type": "event"
    },
    {
      "anonymous": false,
      "inputs": [
        {
          "indexed": true,
          "internalType": "address",
          "name": "operator",
          "type": "address"
        },
        {
          "indexed": true,
          "internalType": "address",
          "name": "from",
          "type": "address"
        },
        {
          "indexed": true,
          "internalType": "address",
          "name": "to",
          "type": "address"
        },
        {
          "indexed": false,
          "internalType": "uint256",
          "name": "id",
          "type": "uint256"
        },
        {
          "indexed": false,
          "internalType": "uint256",
          "name": "value",
          "type": "uint256"
        }
      ],
      "name": "TransferSingle",
      "type": "event"
    },
    {
      "anonymous": false,
      "inputs": [
        {
          "indexed": false,
          "internalType": "string",
          "name": "value",
          "type": "string"
        },
        {
          "indexed": true,
          "internalType": "uint256",
          "name": "id",
          "type": "uint256"
        }
      ],
      "name": "URI",
      "type": "event"
    },
    {
      "inputs": [
        {
          "internalType": "address",
          "name": "account",
          "type": "address"
        },
        {
          "internalType": "uint256",
          "name": "id",
          "type": "uint256"
        }
      ],
      "name": "balanceOf",
      "outputs": [
        {
          "internalType": "uint256",
          "name": "",
          "type": "uint256"
        }
      ],
      "stateMutability": "view",
      "type": "function",
      "constant": true
    },
    {
      "inputs": [
        {
          "internalType": "address[]",
          "name": "accounts",
          "type": "address[]"
        },
        {
          "internalType": "uint256[]",
          "name": "ids",
          "type": "uint256[]"
        }
      ],
      "name": "balanceOfBatch",
      "outputs": [
        {
          "internalType": "uint256[]",
          "name": "",
          "type": "uint256[]"
        }
      ],
      "stateMutability": "view",
      "type": "function",
      "constant": true
    },
    {
      "inputs": [
        {
          "internalType": "address",
          "name": "account",
          "type": "address"
        },
        {
          "internalType": "address",
          "name": "operator",
          "type": "address"
        }
      ],
      "name": "isApprovedForAll",
      "outputs": [
        {
          "internalType": "bool",
          "name": "",
          "type": "bool"
        }
      ],
      "stateMutability": "view",
      "type": "function",
      "constant": true
    },
    {
      "inputs": [],
      "name": "owner",
      "outputs": [
        {
          "internalType": "address",
          "name": "",
          "type": "address"
        }
      ],
      "stateMutability": "view",
      "type": "function",
      "constant": true
    },
    {
      "inputs": [],
      "name": "renounceOwnership",
      "outputs": [],
      "stateMutability": "nonpayable",
      "type": "function"
    },
    {
      "inputs": [
        {
          "internalType": "address",
          "name": "from",
          "type": "address"
        },
        {
          "internalType": "address",
          "name": "to",
          "type": "address"
        },
        {
          "internalType": "uint256[]",
          "name": "ids",
          "type": "uint256[]"
        },
        {
          "internalType": "uint256[]",
          "name": "amounts",
          "type": "uint256[]"
        },
        {
          "internalType": "bytes",
          "name": "data",
          "type": "bytes"
        }
      ],
      "name": "safeBatchTransferFrom",
      "outputs": [],
      "stateMutability": "nonpayable",
      "type": "function"
    },
    {
      "inputs": [
        {
          "internalType": "address",
          "name": "from",
          "type": "address"
        },
        {
          "internalType": "address",
          "name": "to",
          "type": "address"
        },
        {
          "internalType": "uint256",
          "name": "id",
          "type": "uint256"
        },
        {
          "internalType": "uint256",
          "name": "amount",
          "type": "uint256"
        },
        {
          "internalType": "bytes",
          "name": "data",
          "type": "bytes"
        }
      ],
      "name": "safeTransferFrom",
      "outputs": [],
      "stateMutability": "nonpayable",
      "type": "function"
    },
    {
      "inputs": [
        {
          "internalType": "address",
          "name": "operator",
          "type": "address"
        },
        {
          "internalType": "bool",
          "name": "approved",
          "type": "bool"
        }
      ],
      "name": "setApprovalForAll",
      "outputs": [],
      "stateMutability": "nonpayable",
      "type": "function"
    },
    {
      "inputs": [
        {
          "internalType": "bytes4",
          "name": "interfaceId",
          "type": "bytes4"
        }
      ],
      "name": "supportsInterface",
      "outputs": [
        {
          "internalType": "bool",
          "name": "",
          "type": "bool"
        }
      ],
      "stateMutability": "view",
      "type": "function",
      "constant": true
    },
    {
      "inputs": [
        {
          "internalType": "address",
          "name": "newOwner",
          "type": "address"
        }
      ],
      "name": "transferOwnership",
      "outputs": [],
      "stateMutability": "nonpayable",
      "type": "function"
    },
    {
      "inputs": [
        {
          "internalType": "uint256",
          "name": "",
          "type": "uint256"
        }
      ],
      "name": "uri",
      "outputs": [
        {
          "internalType": "string",
          "name": "",
          "type": "string"
        }
      ],
      "stateMutability": "view",
      "type": "function",
      "constant": true
    },
    {
      "inputs": [
        {
          "internalType": "address",
          "name": "account",
          "type": "address"
        },
        {
          "internalType": "uint256",
          "name": "id",
          "type": "uint256"
        },
        {
          "internalType": "uint256",
          "name": "amount",
          "type": "uint256"
        }
      ],
      "name": "mint",
      "outputs": [],
      "stateMutability": "nonpayable",
      "type": "function"
    },
    {
      "inputs": [
        {
          "internalType": "address",
          "name": "account",
          "type": "address"
        },
        {
          "internalType": "uint256",
          "name": "id",
          "type": "uint256"
        },
        {
          "internalType": "uint256",
          "name": "amount",
          "type": "uint256"
        }
      ],
      "name": "burn",
      "outputs": [],
      "stateMutability": "nonpayable",
      "type": "function"
    },
    {
      "inputs": [
        {
          "internalType": "address",
          "name": "account",
          "type": "address"
        },
        {
          "internalType": "uint256",
          "name": "id",
          "type": "uint256"
        }
      ],
      "name": "getBalance",
      "outputs": [
        {
          "internalType": "uint256",
          "name": "balance",
          "type": "uint256"
        }
      ],
      "stateMutability": "view",
      "type": "function",
      "constant": true
    },
    {
      "inputs": [
        {
          "internalType": "uint256",
          "name": "amount",
          "type": "uint256"
        }
      ],
      "name": "deposit",
      "outputs": [],
      "stateMutability": "nonpayable",
      "type": "function"
    },
    {
      "inputs": [
        {
          "internalType": "address",
          "name": "payTo",
          "type": "address"
        },
        {
          "internalType": "uint256",
          "name": "amount",
          "type": "uint256"
        }
      ],
      "name": "trade",
      "outputs": [],
      "stateMutability": "nonpayable",
      "type": "function"
    }
  ],
  "bytecode": "0x60806040526040518060400160405280600d81526020017f556e7061696420576f726b657200000000000000000000000000000000000000815250600490816200004a9190620009ca565b506040518060400160405280600281526020017f555700000000000000000000000000000000000000000000000000000000000081525060059081620000919190620009ca565b50620f42406006556040518060400160405280601f81526020017f68747470733a2f2f756e70616964576f726b65722e636f6d2f746f6b656e2f0081525060079081620000df9190620009ca565b50348015620000ed57600080fd5b5060078054620000fd90620007b9565b80601f01602080910402602001604051908101604052809291908181526020018280546200012b90620007b9565b80156200017c5780601f1062000150576101008083540402835291602001916200017c565b820191906000526020600020905b8154815290600101906020018083116200015e57829003601f168201915b5050505050620001a162000195620001df60201b60201c565b620001e760201b60201c565b620001b281620002ab60201b60201c565b50620001d933600060065460405180602001604052806000815250620002c060201b60201c565b620010aa565b600033905090565b60008060009054906101000a900473ffffffffffffffffffffffffffffffffffffffff169050816000806101000a81548173ffffffffffffffffffffffffffffffffffffffff021916908373ffffffffffffffffffffffffffffffffffffffff1602179055508173ffffffffffffffffffffffffffffffffffffffff168173ffffffffffffffffffffffffffffffffffffffff167f8be0079c531659141344cd1fd0a4f28419497f9722a3daafe3b4186f6b6457e060405160405180910390a35050565b8060039081620002bc9190620009ca565b5050565b600073ffffffffffffffffffffffffffffffffffffffff168473ffffffffffffffffffffffffffffffffffffffff160362000332576040517f08c379a0000000000000000000000000000000000000000000000000000000008152600401620003299062000b38565b60405180910390fd5b600062000344620001df60201b60201c565b905060006200035985620004a860201b60201c565b905060006200036e85620004a860201b60201c565b905062000387836000898585896200052960201b60201c565b846001600088815260200190815260200160002060008973ffffffffffffffffffffffffffffffffffffffff1673ffffffffffffffffffffffffffffffffffffffff1681526020019081526020016000206000828254620003e9919062000b89565b925050819055508673ffffffffffffffffffffffffffffffffffffffff16600073ffffffffffffffffffffffffffffffffffffffff168473ffffffffffffffffffffffffffffffffffffffff167fc3d58168c5ae7397731d063d5bbf3d657854427343f4c083240f7aacaa2d0f6289896040516200046992919062000bd5565b60405180910390a462000488836000898585896200053160201b60201c565b6200049f836000898989896200053960201b60201c565b50505050505050565b60606000600167ffffffffffffffff811115620004ca57620004c96200075b565b5b604051908082528060200260200182016040528015620004f95781602001602082028036833780820191505090505b509050828160008151811062000514576200051362000c02565b5b60200260200101818152505080915050919050565b505050505050565b505050505050565b620005608473ffffffffffffffffffffffffffffffffffffffff166200072d60201b60201c565b1562000725578373ffffffffffffffffffffffffffffffffffffffff1663f23a6e6187878686866040518663ffffffff1660e01b8152600401620005a995949392919062000d10565b6020604051808303816000875af1925050508015620005e857506040513d601f19601f82011682018060405250810190620005e5919062000de0565b60015b6200069957620005f762000e1f565b806308c379a0036200065a57506200060e62000e7a565b806200061b57506200065c565b806040517f08c379a000000000000000000000000000000000000000000000000000000000815260040162000651919062000f56565b60405180910390fd5b505b6040517f08c379a0000000000000000000000000000000000000000000000000000000008152600401620006909062000ff0565b60405180910390fd5b63f23a6e6160e01b7bffffffffffffffffffffffffffffffffffffffffffffffffffffffff1916817bffffffffffffffffffffffffffffffffffffffffffffffffffffffff19161462000723576040517f08c379a00000000000000000000000000000000000000000000000000000000081526004016200071a9062001088565b60405180910390fd5b505b505050505050565b6000808273ffffffffffffffffffffffffffffffffffffffff163b119050919050565b600081519050919050565b7f4e487b7100000000000000000000000000000000000000000000000000000000600052604160045260246000fd5b7f4e487b7100000000000000000000000000000000000000000000000000000000600052602260045260246000fd5b60006002820490506001821680620007d257607f821691505b602082108103620007e857620007e76200078a565b5b50919050565b60008190508160005260206000209050919050565b60006020601f8301049050919050565b600082821b905092915050565b600060088302620008527fffffffffffffffffffffffffffffffffffffffffffffffffffffffffffffffff8262000813565b6200085e868362000813565b95508019841693508086168417925050509392505050565b6000819050919050565b6000819050919050565b6000620008ab620008a56200089f8462000876565b62000880565b62000876565b9050919050565b6000819050919050565b620008c7836200088a565b620008df620008d682620008b2565b84845462000820565b825550505050565b600090565b620008f6620008e7565b62000903818484620008bc565b505050565b5b818110156200092b576200091f600082620008ec565b60018101905062000909565b5050565b601f8211156200097a576200094481620007ee565b6200094f8462000803565b810160208510156200095f578190505b620009776200096e8562000803565b83018262000908565b50505b505050565b600082821c905092915050565b60006200099f600019846008026200097f565b1980831691505092915050565b6000620009ba83836200098c565b9150826002028217905092915050565b620009d58262000750565b67ffffffffffffffff811115620009f157620009f06200075b565b5b620009fd8254620007b9565b62000a0a8282856200092f565b600060209050601f83116001811462000a42576000841562000a2d578287015190505b62000a398582620009ac565b86555062000aa9565b601f19841662000a5286620007ee565b60005b8281101562000a7c5784890151825560018201915060208501945060208101905062000a55565b8683101562000a9c578489015162000a98601f8916826200098c565b8355505b6001600288020188555050505b505050505050565b600082825260208201905092915050565b7f455243313135353a206d696e7420746f20746865207a65726f2061646472657360008201527f7300000000000000000000000000000000000000000000000000000000000000602082015250565b600062000b2060218362000ab1565b915062000b2d8262000ac2565b604082019050919050565b6000602082019050818103600083015262000b538162000b11565b9050919050565b7f4e487b7100000000000000000000000000000000000000000000000000000000600052601160045260246000fd5b600062000b968262000876565b915062000ba38362000876565b925082820190508082111562000bbe5762000bbd62000b5a565b5b92915050565b62000bcf8162000876565b82525050565b600060408201905062000bec600083018562000bc4565b62000bfb602083018462000bc4565b9392505050565b7f4e487b7100000000000000000000000000000000000000000000000000000000600052603260045260246000fd5b600073ffffffffffffffffffffffffffffffffffffffff82169050919050565b600062000c5e8262000c31565b9050919050565b62000c708162000c51565b82525050565b600081519050919050565b600082825260208201905092915050565b60005b8381101562000cb257808201518184015260208101905062000c95565b60008484015250505050565b6000601f19601f8301169050919050565b600062000cdc8262000c76565b62000ce8818562000c81565b935062000cfa81856020860162000c92565b62000d058162000cbe565b840191505092915050565b600060a08201905062000d27600083018862000c65565b62000d36602083018762000c65565b62000d45604083018662000bc4565b62000d54606083018562000bc4565b818103608083015262000d68818462000ccf565b90509695505050505050565b6000604051905090565b600080fd5b60007fffffffff0000000000000000000000000000000000000000000000000000000082169050919050565b62000dba8162000d83565b811462000dc657600080fd5b50565b60008151905062000dda8162000daf565b92915050565b60006020828403121562000df95762000df862000d7e565b5b600062000e098482850162000dc9565b91505092915050565b60008160e01c9050919050565b600060033d111562000e415760046000803e62000e3e60005162000e12565b90505b90565b62000e4f8262000cbe565b810181811067ffffffffffffffff8211171562000e715762000e706200075b565b5b80604052505050565b600060443d1062000f125762000e8f62000d74565b60043d036004823e80513d602482011167ffffffffffffffff8211171562000eb957505062000f12565b808201805167ffffffffffffffff81111562000ed9575050505062000f12565b80602083010160043d03850181111562000ef857505050505062000f12565b62000f098260200185018662000e44565b82955050505050505b90565b600062000f228262000750565b62000f2e818562000ab1565b935062000f4081856020860162000c92565b62000f4b8162000cbe565b840191505092915050565b6000602082019050818103600083015262000f72818462000f15565b905092915050565b7f455243313135353a207472616e7366657220746f206e6f6e2d4552433131353560008201527f526563656976657220696d706c656d656e746572000000000000000000000000602082015250565b600062000fd860348362000ab1565b915062000fe58262000f7a565b604082019050919050565b600060208201905081810360008301526200100b8162000fc9565b9050919050565b7f455243313135353a204552433131353552656365697665722072656a6563746560008201527f6420746f6b656e73000000000000000000000000000000000000000000000000602082015250565b60006200107060288362000ab1565b91506200107d8262001012565b604082019050919050565b60006020820190508181036000830152620010a38162001061565b9050919050565b61358080620010ba6000396000f3fe608060405234801561001057600080fd5b50600436106100ff5760003560e01c8063715018a611610097578063e985e9c511610066578063e985e9c5146102a8578063f242432a146102d8578063f2fde38b146102f4578063f5298aca14610310576100ff565b8063715018a6146102485780638da5cb5b14610252578063a22cb46514610270578063b6b55f251461028c576100ff565b80632b04e840116100d35780632b04e840146101b05780632eb2c2d6146101e05780634e1273f4146101fc57806368f8c2a41461022c576100ff565b8062fdd58e1461010457806301ffc9a7146101345780630e89341c14610164578063156e29f614610194575b600080fd5b61011e60048036038101906101199190611ea8565b61032c565b60405161012b9190611ef7565b60405180910390f35b61014e60048036038101906101499190611f6a565b6103f5565b60405161015b9190611fb2565b60405180910390f35b61017e60048036038101906101799190611fcd565b6104d7565b60405161018b919061208a565b60405180910390f35b6101ae60048036038101906101a991906120ac565b61056b565b005b6101ca60048036038101906101c59190611ea8565b610593565b6040516101d79190611ef7565b60405180910390f35b6101fa60048036038101906101f591906122fc565b61061c565b005b6102166004803603810190610211919061248e565b6106bd565b60405161022391906125c4565b60405180910390f35b61024660048036038101906102419190611ea8565b6107d6565b005b610250610972565b005b61025a610986565b60405161026791906125f5565b60405180910390f35b61028a6004803603810190610285919061263c565b6109af565b005b6102a660048036038101906102a19190611fcd565b6109c5565b005b6102c260048036038101906102bd919061267c565b610afa565b6040516102cf9190611fb2565b60405180910390f35b6102f260048036038101906102ed91906126bc565b610b8e565b005b61030e60048036038101906103099190612753565b610c2f565b005b61032a600480360381019061032591906120ac565b610cb2565b005b60008073ffffffffffffffffffffffffffffffffffffffff168373ffffffffffffffffffffffffffffffffffffffff160361039c576040517f08c379a0000000000000000000000000000000000000000000000000000000008152600401610393906127f2565b60405180910390fd5b6001600083815260200190815260200160002060008473ffffffffffffffffffffffffffffffffffffffff1673ffffffffffffffffffffffffffffffffffffffff16815260200190815260200160002054905092915050565b60007fd9b67a26000000000000000000000000000000000000000000000000000000007bffffffffffffffffffffffffffffffffffffffffffffffffffffffff1916827bffffffffffffffffffffffffffffffffffffffffffffffffffffffff191614806104c057507f0e89341c000000000000000000000000000000000000000000000000000000007bffffffffffffffffffffffffffffffffffffffffffffffffffffffff1916827bffffffffffffffffffffffffffffffffffffffffffffffffffffffff1916145b806104d057506104cf82610cca565b5b9050919050565b6060600380546104e690612841565b80601f016020809104026020016040519081016040528092919081815260200182805461051290612841565b801561055f5780601f106105345761010080835404028352916020019161055f565b820191906000526020600020905b81548152906001019060200180831161054257829003601f168201915b50505050509050919050565b610573610d34565b61058e83838360405180602001604052806000815250610db2565b505050565b600061059d610986565b73ffffffffffffffffffffffffffffffffffffffff163373ffffffffffffffffffffffffffffffffffffffff160361060a576040517f08c379a0000000000000000000000000000000000000000000000000000000008152600401610601906128e4565b60405180910390fd5b610614838361032c565b905092915050565b610624610f63565b73ffffffffffffffffffffffffffffffffffffffff168573ffffffffffffffffffffffffffffffffffffffff16148061066a575061066985610664610f63565b610afa565b5b6106a9576040517f08c379a00000000000000000000000000000000000000000000000000000000081526004016106a090612976565b60405180910390fd5b6106b68585858585610f6b565b5050505050565b60608151835114610703576040517f08c379a00000000000000000000000000000000000000000000000000000000081526004016106fa90612a08565b60405180910390fd5b6000835167ffffffffffffffff8111156107205761071f612104565b5b60405190808252806020026020018201604052801561074e5781602001602082028036833780820191505090505b50905060005b84518110156107cb5761079b85828151811061077357610772612a28565b5b602002602001015185838151811061078e5761078d612a28565b5b602002602001015161032c565b8282815181106107ae576107ad612a28565b5b602002602001018181525050806107c490612a86565b9050610754565b508091505092915050565b6107de610986565b73ffffffffffffffffffffffffffffffffffffffff163373ffffffffffffffffffffffffffffffffffffffff160361084b576040517f08c379a0000000000000000000000000000000000000000000000000000000008152600401610842906128e4565b60405180910390fd5b806000811161088f576040517f08c379a000000000000000000000000000000000000000000000000000000000815260040161088690612b1a565b60405180910390fd5b3373ffffffffffffffffffffffffffffffffffffffff168373ffffffffffffffffffffffffffffffffffffffff16036108fd576040517f08c379a00000000000000000000000000000000000000000000000000000000081526004016108f490612b86565b60405180910390fd5b600061090a336000610593565b90508281101561094f576040517f08c379a000000000000000000000000000000000000000000000000000000000815260040161094690612bf2565b60405180910390fd5b61096c33856000866040518060200160405280600081525061128f565b50505050565b61097a610d34565b610984600061152d565b565b60008060009054906101000a900473ffffffffffffffffffffffffffffffffffffffff16905090565b6109c16109ba610f63565b83836115f1565b5050565b6109cd610986565b73ffffffffffffffffffffffffffffffffffffffff163373ffffffffffffffffffffffffffffffffffffffff1603610a3a576040517f08c379a0000000000000000000000000000000000000000000000000000000008152600401610a31906128e4565b60405180910390fd5b8060008111610a7e576040517f08c379a0000000000000000000000000000000000000000000000000000000008152600401610a7590612b1a565b60405180910390fd5b81610a91610a8a610986565b600061032c565b1015610ad2576040517f08c379a0000000000000000000000000000000000000000000000000000000008152600401610ac990612c5e565b60405180910390fd5b610af6610add610986565b336000856040518060200160405280600081525061128f565b5050565b6000600260008473ffffffffffffffffffffffffffffffffffffffff1673ffffffffffffffffffffffffffffffffffffffff16815260200190815260200160002060008373ffffffffffffffffffffffffffffffffffffffff1673ffffffffffffffffffffffffffffffffffffffff16815260200190815260200160002060009054906101000a900460ff16905092915050565b610b96610f63565b73ffffffffffffffffffffffffffffffffffffffff168573ffffffffffffffffffffffffffffffffffffffff161480610bdc5750610bdb85610bd6610f63565b610afa565b5b610c1b576040517f08c379a0000000000000000000000000000000000000000000000000000000008152600401610c1290612976565b60405180910390fd5b610c28858585858561128f565b5050505050565b610c37610d34565b600073ffffffffffffffffffffffffffffffffffffffff168173ffffffffffffffffffffffffffffffffffffffff1603610ca6576040517f08c379a0000000000000000000000000000000000000000000000000000000008152600401610c9d90612cf0565b60405180910390fd5b610caf8161152d565b50565b610cba610d34565b610cc583838361175d565b505050565b60007f01ffc9a7000000000000000000000000000000000000000000000000000000007bffffffffffffffffffffffffffffffffffffffffffffffffffffffff1916827bffffffffffffffffffffffffffffffffffffffffffffffffffffffff1916149050919050565b610d3c610f63565b73ffffffffffffffffffffffffffffffffffffffff16610d5a610986565b73ffffffffffffffffffffffffffffffffffffffff1614610db0576040517f08c379a0000000000000000000000000000000000000000000000000000000008152600401610da790612d5c565b60405180910390fd5b565b600073ffffffffffffffffffffffffffffffffffffffff168473ffffffffffffffffffffffffffffffffffffffff1603610e21576040517f08c379a0000000000000000000000000000000000000000000000000000000008152600401610e1890612dee565b60405180910390fd5b6000610e2b610f63565b90506000610e38856119a5565b90506000610e45856119a5565b9050610e5683600089858589611a1f565b846001600088815260200190815260200160002060008973ffffffffffffffffffffffffffffffffffffffff1673ffffffffffffffffffffffffffffffffffffffff1681526020019081526020016000206000828254610eb69190612e0e565b925050819055508673ffffffffffffffffffffffffffffffffffffffff16600073ffffffffffffffffffffffffffffffffffffffff168473ffffffffffffffffffffffffffffffffffffffff167fc3d58168c5ae7397731d063d5bbf3d657854427343f4c083240f7aacaa2d0f628989604051610f34929190612e42565b60405180910390a4610f4b83600089858589611a27565b610f5a83600089898989611a2f565b50505050505050565b600033905090565b8151835114610faf576040517f08c379a0000000000000000000000000000000000000000000000000000000008152600401610fa690612edd565b60405180910390fd5b600073ffffffffffffffffffffffffffffffffffffffff168473ffffffffffffffffffffffffffffffffffffffff160361101e576040517f08c379a000000000000000000000000000000000000000000000000000000000815260040161101590612f6f565b60405180910390fd5b6000611028610f63565b9050611038818787878787611a1f565b60005b84518110156111ec57600085828151811061105957611058612a28565b5b60200260200101519050600085838151811061107857611077612a28565b5b6020026020010151905060006001600084815260200190815260200160002060008b73ffffffffffffffffffffffffffffffffffffffff1673ffffffffffffffffffffffffffffffffffffffff1681526020019081526020016000205490508181101561111a576040517f08c379a000000000000000000000000000000000000000000000000000000000815260040161111190613001565b60405180910390fd5b8181036001600085815260200190815260200160002060008c73ffffffffffffffffffffffffffffffffffffffff1673ffffffffffffffffffffffffffffffffffffffff16815260200190815260200160002081905550816001600085815260200190815260200160002060008b73ffffffffffffffffffffffffffffffffffffffff1673ffffffffffffffffffffffffffffffffffffffff16815260200190815260200160002060008282546111d19190612e0e565b92505081905550505050806111e590612a86565b905061103b565b508473ffffffffffffffffffffffffffffffffffffffff168673ffffffffffffffffffffffffffffffffffffffff168273ffffffffffffffffffffffffffffffffffffffff167f4a39dc06d4c0dbc64b70af90fd698a233a518aa5d07e595d983b8c0526c8f7fb8787604051611263929190613021565b60405180910390a4611279818787878787611a27565b611287818787878787611c06565b505050505050565b600073ffffffffffffffffffffffffffffffffffffffff168473ffffffffffffffffffffffffffffffffffffffff16036112fe576040517f08c379a00000000000000000000000000000000000000000000000000000000081526004016112f590612f6f565b60405180910390fd5b6000611308610f63565b90506000611315856119a5565b90506000611322856119a5565b9050611332838989858589611a1f565b60006001600088815260200190815260200160002060008a73ffffffffffffffffffffffffffffffffffffffff1673ffffffffffffffffffffffffffffffffffffffff168152602001908152602001600020549050858110156113ca576040517f08c379a00000000000000000000000000000000000000000000000000000000081526004016113c190613001565b60405180910390fd5b8581036001600089815260200190815260200160002060008b73ffffffffffffffffffffffffffffffffffffffff1673ffffffffffffffffffffffffffffffffffffffff16815260200190815260200160002081905550856001600089815260200190815260200160002060008a73ffffffffffffffffffffffffffffffffffffffff1673ffffffffffffffffffffffffffffffffffffffff16815260200190815260200160002060008282546114819190612e0e565b925050819055508773ffffffffffffffffffffffffffffffffffffffff168973ffffffffffffffffffffffffffffffffffffffff168573ffffffffffffffffffffffffffffffffffffffff167fc3d58168c5ae7397731d063d5bbf3d657854427343f4c083240f7aacaa2d0f628a8a6040516114fe929190612e42565b60405180910390a4611514848a8a86868a611a27565b611522848a8a8a8a8a611a2f565b505050505050505050565b60008060009054906101000a900473ffffffffffffffffffffffffffffffffffffffff169050816000806101000a81548173ffffffffffffffffffffffffffffffffffffffff021916908373ffffffffffffffffffffffffffffffffffffffff1602179055508173ffffffffffffffffffffffffffffffffffffffff168173ffffffffffffffffffffffffffffffffffffffff167f8be0079c531659141344cd1fd0a4f28419497f9722a3daafe3b4186f6b6457e060405160405180910390a35050565b8173ffffffffffffffffffffffffffffffffffffffff168373ffffffffffffffffffffffffffffffffffffffff160361165f576040517f08c379a0000000000000000000000000000000000000000000000000000000008152600401611656906130ca565b60405180910390fd5b80600260008573ffffffffffffffffffffffffffffffffffffffff1673ffffffffffffffffffffffffffffffffffffffff16815260200190815260200160002060008473ffffffffffffffffffffffffffffffffffffffff1673ffffffffffffffffffffffffffffffffffffffff16815260200190815260200160002060006101000a81548160ff0219169083151502179055508173ffffffffffffffffffffffffffffffffffffffff168373ffffffffffffffffffffffffffffffffffffffff167f17307eab39ab6107e8899845ad3d59bd9653f200f220920489ca2b5937696c31836040516117509190611fb2565b60405180910390a3505050565b600073ffffffffffffffffffffffffffffffffffffffff168373ffffffffffffffffffffffffffffffffffffffff16036117cc576040517f08c379a00000000000000000000000000000000000000000000000000000000081526004016117c39061315c565b60405180910390fd5b60006117d6610f63565b905060006117e3846119a5565b905060006117f0846119a5565b905061181083876000858560405180602001604052806000815250611a1f565b60006001600087815260200190815260200160002060008873ffffffffffffffffffffffffffffffffffffffff1673ffffffffffffffffffffffffffffffffffffffff168152602001908152602001600020549050848110156118a8576040517f08c379a000000000000000000000000000000000000000000000000000000000815260040161189f906131ee565b60405180910390fd5b8481036001600088815260200190815260200160002060008973ffffffffffffffffffffffffffffffffffffffff1673ffffffffffffffffffffffffffffffffffffffff16815260200190815260200160002081905550600073ffffffffffffffffffffffffffffffffffffffff168773ffffffffffffffffffffffffffffffffffffffff168573ffffffffffffffffffffffffffffffffffffffff167fc3d58168c5ae7397731d063d5bbf3d657854427343f4c083240f7aacaa2d0f628989604051611976929190612e42565b60405180910390a461199c84886000868660405180602001604052806000815250611a27565b50505050505050565b60606000600167ffffffffffffffff8111156119c4576119c3612104565b5b6040519080825280602002602001820160405280156119f25781602001602082028036833780820191505090505b5090508281600081518110611a0a57611a09612a28565b5b60200260200101818152505080915050919050565b505050505050565b505050505050565b611a4e8473ffffffffffffffffffffffffffffffffffffffff16611ddd565b15611bfe578373ffffffffffffffffffffffffffffffffffffffff1663f23a6e6187878686866040518663ffffffff1660e01b8152600401611a94959493929190613263565b6020604051808303816000875af1925050508015611ad057506040513d601f19601f82011682018060405250810190611acd91906132d2565b60015b611b7557611adc61330c565b806308c379a003611b385750611af061332e565b80611afb5750611b3a565b806040517f08c379a0000000000000000000000000000000000000000000000000000000008152600401611b2f919061208a565b60405180910390fd5b505b6040517f08c379a0000000000000000000000000000000000000000000000000000000008152600401611b6c90613430565b60405180910390fd5b63f23a6e6160e01b7bffffffffffffffffffffffffffffffffffffffffffffffffffffffff1916817bffffffffffffffffffffffffffffffffffffffffffffffffffffffff191614611bfc576040517f08c379a0000000000000000000000000000000000000000000000000000000008152600401611bf3906134c2565b60405180910390fd5b505b505050505050565b611c258473ffffffffffffffffffffffffffffffffffffffff16611ddd565b15611dd5578373ffffffffffffffffffffffffffffffffffffffff1663bc197c8187878686866040518663ffffffff1660e01b8152600401611c6b9594939291906134e2565b6020604051808303816000875af1925050508015611ca757506040513d601f19601f82011682018060405250810190611ca491906132d2565b60015b611d4c57611cb361330c565b806308c379a003611d0f5750611cc761332e565b80611cd25750611d11565b806040517f08c379a0000000000000000000000000000000000000000000000000000000008152600401611d06919061208a565b60405180910390fd5b505b6040517f08c379a0000000000000000000000000000000000000000000000000000000008152600401611d4390613430565b60405180910390fd5b63bc197c8160e01b7bffffffffffffffffffffffffffffffffffffffffffffffffffffffff1916817bffffffffffffffffffffffffffffffffffffffffffffffffffffffff191614611dd3576040517f08c379a0000000000000000000000000000000000000000000000000000000008152600401611dca906134c2565b60405180910390fd5b505b505050505050565b6000808273ffffffffffffffffffffffffffffffffffffffff163b119050919050565b6000604051905090565b600080fd5b600080fd5b600073ffffffffffffffffffffffffffffffffffffffff82169050919050565b6000611e3f82611e14565b9050919050565b611e4f81611e34565b8114611e5a57600080fd5b50565b600081359050611e6c81611e46565b92915050565b6000819050919050565b611e8581611e72565b8114611e9057600080fd5b50565b600081359050611ea281611e7c565b92915050565b60008060408385031215611ebf57611ebe611e0a565b5b6000611ecd85828601611e5d565b9250506020611ede85828601611e93565b9150509250929050565b611ef181611e72565b82525050565b6000602082019050611f0c6000830184611ee8565b92915050565b60007fffffffff0000000000000000000000000000000000000000000000000000000082169050919050565b611f4781611f12565b8114611f5257600080fd5b50565b600081359050611f6481611f3e565b92915050565b600060208284031215611f8057611f7f611e0a565b5b6000611f8e84828501611f55565b91505092915050565b60008115159050919050565b611fac81611f97565b82525050565b6000602082019050611fc76000830184611fa3565b92915050565b600060208284031215611fe357611fe2611e0a565b5b6000611ff184828501611e93565b91505092915050565b600081519050919050565b600082825260208201905092915050565b60005b83811015612034578082015181840152602081019050612019565b60008484015250505050565b6000601f19601f8301169050919050565b600061205c82611ffa565b6120668185612005565b9350612076818560208601612016565b61207f81612040565b840191505092915050565b600060208201905081810360008301526120a48184612051565b905092915050565b6000806000606084860312156120c5576120c4611e0a565b5b60006120d386828701611e5d565b93505060206120e486828701611e93565b92505060406120f586828701611e93565b9150509250925092565b600080fd5b7f4e487b7100000000000000000000000000000000000000000000000000000000600052604160045260246000fd5b61213c82612040565b810181811067ffffffffffffffff8211171561215b5761215a612104565b5b80604052505050565b600061216e611e00565b905061217a8282612133565b919050565b600067ffffffffffffffff82111561219a57612199612104565b5b602082029050602081019050919050565b600080fd5b60006121c36121be8461217f565b612164565b905080838252602082019050602084028301858111156121e6576121e56121ab565b5b835b8181101561220f57806121fb8882611e93565b8452602084019350506020810190506121e8565b5050509392505050565b600082601f83011261222e5761222d6120ff565b5b813561223e8482602086016121b0565b91505092915050565b600080fd5b600067ffffffffffffffff82111561226757612266612104565b5b61227082612040565b9050602081019050919050565b82818337600083830152505050565b600061229f61229a8461224c565b612164565b9050828152602081018484840111156122bb576122ba612247565b5b6122c684828561227d565b509392505050565b600082601f8301126122e3576122e26120ff565b5b81356122f384826020860161228c565b91505092915050565b600080600080600060a0868803121561231857612317611e0a565b5b600061232688828901611e5d565b955050602061233788828901611e5d565b945050604086013567ffffffffffffffff81111561235857612357611e0f565b5b61236488828901612219565b935050606086013567ffffffffffffffff81111561238557612384611e0f565b5b61239188828901612219565b925050608086013567ffffffffffffffff8111156123b2576123b1611e0f565b5b6123be888289016122ce565b9150509295509295909350565b600067ffffffffffffffff8211156123e6576123e5612104565b5b602082029050602081019050919050565b600061240a612405846123cb565b612164565b9050808382526020820190506020840283018581111561242d5761242c6121ab565b5b835b8181101561245657806124428882611e5d565b84526020840193505060208101905061242f565b5050509392505050565b600082601f830112612475576124746120ff565b5b81356124858482602086016123f7565b91505092915050565b600080604083850312156124a5576124a4611e0a565b5b600083013567ffffffffffffffff8111156124c3576124c2611e0f565b5b6124cf85828601612460565b925050602083013567ffffffffffffffff8111156124f0576124ef611e0f565b5b6124fc85828601612219565b9150509250929050565b600081519050919050565b600082825260208201905092915050565b6000819050602082019050919050565b61253b81611e72565b82525050565b600061254d8383612532565b60208301905092915050565b6000602082019050919050565b600061257182612506565b61257b8185612511565b935061258683612522565b8060005b838110156125b757815161259e8882612541565b97506125a983612559565b92505060018101905061258a565b5085935050505092915050565b600060208201905081810360008301526125de8184612566565b905092915050565b6125ef81611e34565b82525050565b600060208201905061260a60008301846125e6565b92915050565b61261981611f97565b811461262457600080fd5b50565b60008135905061263681612610565b92915050565b6000806040838503121561265357612652611e0a565b5b600061266185828601611e5d565b925050602061267285828601612627565b9150509250929050565b6000806040838503121561269357612692611e0a565b5b60006126a185828601611e5d565b92505060206126b285828601611e5d565b9150509250929050565b600080600080600060a086880312156126d8576126d7611e0a565b5b60006126e688828901611e5d565b95505060206126f788828901611e5d565b945050604061270888828901611e93565b935050606061271988828901611e93565b925050608086013567ffffffffffffffff81111561273a57612739611e0f565b5b612746888289016122ce565b9150509295509295909350565b60006020828403121561276957612768611e0a565b5b600061277784828501611e5d565b91505092915050565b7f455243313135353a2061646472657373207a65726f206973206e6f742061207660008201527f616c6964206f776e657200000000000000000000000000000000000000000000602082015250565b60006127dc602a83612005565b91506127e782612780565b604082019050919050565b6000602082019050818103600083015261280b816127cf565b9050919050565b7f4e487b7100000000000000000000000000000000000000000000000000000000600052602260045260246000fd5b6000600282049050600182168061285957607f821691505b60208210810361286c5761286b612812565b5b50919050565b7f4f6e6c792075736572732063616e2063616c6c20746869732066756e6374696f60008201527f6e00000000000000000000000000000000000000000000000000000000000000602082015250565b60006128ce602183612005565b91506128d982612872565b604082019050919050565b600060208201905081810360008301526128fd816128c1565b9050919050565b7f455243313135353a2063616c6c6572206973206e6f7420746f6b656e206f776e60008201527f6572206f7220617070726f766564000000000000000000000000000000000000602082015250565b6000612960602e83612005565b915061296b82612904565b604082019050919050565b6000602082019050818103600083015261298f81612953565b9050919050565b7f455243313135353a206163636f756e747320616e6420696473206c656e67746860008201527f206d69736d617463680000000000000000000000000000000000000000000000602082015250565b60006129f2602983612005565b91506129fd82612996565b604082019050919050565b60006020820190508181036000830152612a21816129e5565b9050919050565b7f4e487b7100000000000000000000000000000000000000000000000000000000600052603260045260246000fd5b7f4e487b7100000000000000000000000000000000000000000000000000000000600052601160045260246000fd5b6000612a9182611e72565b91507fffffffffffffffffffffffffffffffffffffffffffffffffffffffffffffffff8203612ac357612ac2612a57565b5b600182019050919050565b7f4d6f6e6579206d7573742062652067726561746572207468616e207a65726f00600082015250565b6000612b04601f83612005565b9150612b0f82612ace565b602082019050919050565b60006020820190508181036000830152612b3381612af7565b9050919050565b7f43616e6e6f7420747261646520746f6b656e7320746f20796f757273656c6600600082015250565b6000612b70601f83612005565b9150612b7b82612b3a565b602082019050919050565b60006020820190508181036000830152612b9f81612b63565b9050919050565b7f496e73756666696369656e7420746f6b656e2062616c616e6365000000000000600082015250565b6000612bdc601a83612005565b9150612be782612ba6565b602082019050919050565b60006020820190508181036000830152612c0b81612bcf565b9050919050565b7f496e73756666696369656e742062616c616e6365206f6620746f6b656e000000600082015250565b6000612c48601d83612005565b9150612c5382612c12565b602082019050919050565b60006020820190508181036000830152612c7781612c3b565b9050919050565b7f4f776e61626c653a206e6577206f776e657220697320746865207a65726f206160008201527f6464726573730000000000000000000000000000000000000000000000000000602082015250565b6000612cda602683612005565b9150612ce582612c7e565b604082019050919050565b60006020820190508181036000830152612d0981612ccd565b9050919050565b7f4f776e61626c653a2063616c6c6572206973206e6f7420746865206f776e6572600082015250565b6000612d46602083612005565b9150612d5182612d10565b602082019050919050565b60006020820190508181036000830152612d7581612d39565b9050919050565b7f455243313135353a206d696e7420746f20746865207a65726f2061646472657360008201527f7300000000000000000000000000000000000000000000000000000000000000602082015250565b6000612dd8602183612005565b9150612de382612d7c565b604082019050919050565b60006020820190508181036000830152612e0781612dcb565b9050919050565b6000612e1982611e72565b9150612e2483611e72565b9250828201905080821115612e3c57612e3b612a57565b5b92915050565b6000604082019050612e576000830185611ee8565b612e646020830184611ee8565b9392505050565b7f455243313135353a2069647320616e6420616d6f756e7473206c656e6774682060008201527f6d69736d61746368000000000000000000000000000000000000000000000000602082015250565b6000612ec7602883612005565b9150612ed282612e6b565b604082019050919050565b60006020820190508181036000830152612ef681612eba565b9050919050565b7f455243313135353a207472616e7366657220746f20746865207a65726f20616460008201527f6472657373000000000000000000000000000000000000000000000000000000602082015250565b6000612f59602583612005565b9150612f6482612efd565b604082019050919050565b60006020820190508181036000830152612f8881612f4c565b9050919050565b7f455243313135353a20696e73756666696369656e742062616c616e636520666f60008201527f72207472616e7366657200000000000000000000000000000000000000000000602082015250565b6000612feb602a83612005565b9150612ff682612f8f565b604082019050919050565b6000602082019050818103600083015261301a81612fde565b9050919050565b6000604082019050818103600083015261303b8185612566565b9050818103602083015261304f8184612566565b90509392505050565b7f455243313135353a2073657474696e6720617070726f76616c2073746174757360008201527f20666f722073656c660000000000000000000000000000000000000000000000602082015250565b60006130b4602983612005565b91506130bf82613058565b604082019050919050565b600060208201905081810360008301526130e3816130a7565b9050919050565b7f455243313135353a206275726e2066726f6d20746865207a65726f206164647260008201527f6573730000000000000000000000000000000000000000000000000000000000602082015250565b6000613146602383612005565b9150613151826130ea565b604082019050919050565b6000602082019050818103600083015261317581613139565b9050919050565b7f455243313135353a206275726e20616d6f756e7420657863656564732062616c60008201527f616e636500000000000000000000000000000000000000000000000000000000602082015250565b60006131d8602483612005565b91506131e38261317c565b604082019050919050565b60006020820190508181036000830152613207816131cb565b9050919050565b600081519050919050565b600082825260208201905092915050565b60006132358261320e565b61323f8185613219565b935061324f818560208601612016565b61325881612040565b840191505092915050565b600060a08201905061327860008301886125e6565b61328560208301876125e6565b6132926040830186611ee8565b61329f6060830185611ee8565b81810360808301526132b1818461322a565b90509695505050505050565b6000815190506132cc81611f3e565b92915050565b6000602082840312156132e8576132e7611e0a565b5b60006132f6848285016132bd565b91505092915050565b60008160e01c9050919050565b600060033d111561332b5760046000803e6133286000516132ff565b90505b90565b600060443d106133bb57613340611e00565b60043d036004823e80513d602482011167ffffffffffffffff821117156133685750506133bb565b808201805167ffffffffffffffff81111561338657505050506133bb565b80602083010160043d0385018111156133a35750505050506133bb565b6133b282602001850186612133565b82955050505050505b90565b7f455243313135353a207472616e7366657220746f206e6f6e2d4552433131353560008201527f526563656976657220696d706c656d656e746572000000000000000000000000602082015250565b600061341a603483612005565b9150613425826133be565b604082019050919050565b600060208201905081810360008301526134498161340d565b9050919050565b7f455243313135353a204552433131353552656365697665722072656a6563746560008201527f6420746f6b656e73000000000000000000000000000000000000000000000000602082015250565b60006134ac602883612005565b91506134b782613450565b604082019050919050565b600060208201905081810360008301526134db8161349f565b9050919050565b600060a0820190506134f760008301886125e6565b61350460208301876125e6565b81810360408301526135168186612566565b9050818103606083015261352a8185612566565b9050818103608083015261353e818461322a565b9050969550505050505056fea2646970667358221220de93674302d3c69b37ac3917c6abef93b2f5bf65deaf4715343a56a3b165785864736f6c63430008130033",
  "immutableReferences": {},
  "source": "// SPDX-License-Identifier: GPL-3.0\npragma solidity ^0.8.0;\n\nimport \"@openzeppelin/contracts/token/ERC1155/ERC1155.sol\";\nimport \"@openzeppelin/contracts/utils/Strings.sol\";\nimport \"@openzeppelin/contracts/access/Ownable.sol\";\n\n\ncontract PaySystem is Ownable, ERC1155 {\n\n    string private name = \"Unpaid Worker\";\n    string private symbol = \"UW\";\n    uint256 private totalSupply = 1000000;\n    //0\n    // uint256 public constant tokenId = 0;\n\n    //\n    string private baseURI= \"https://unpaidWorker.com/token/\";\n\n    // mapping(address => mapping(address => uint256)) allowed;\n\n    constructor() ERC1155(baseURI) {\n        _mint(msg.sender, 0, totalSupply, \"\");\n    }\n\n    modifier onlyUser() {\n        require(msg.sender != owner(), \"Only users can call this function\");\n        _;\n    }\n\n    modifier moneyGreaterThanZero(uint value) {\n        require(value > 0, \"Money must be greater than zero\");\n        _;\n    }\n\n    function mint(address account, uint256 id, uint256 amount) public onlyOwner {\n        _mint(account, id, amount, \"\");\n    }\n\n    function burn(address account, uint256 id, uint256 amount) public onlyOwner {\n        _burn(account, id, amount);\n    }\n\n    function getBalance(address account, uint256 id) public view onlyUser returns (uint256 balance) {\n        balance = balanceOf(account, id);\n    }\n\n    function deposit(uint amount) public onlyUser moneyGreaterThanZero(amount) {\n        require(balanceOf(owner(), 0) >= amount, \"Insufficient balance of token\");\n        _safeTransferFrom(owner(), msg.sender, 0, amount, \"\");\n    }\n\n    function trade(address payTo, uint amount) public onlyUser moneyGreaterThanZero(amount) {\n        require(payTo != msg.sender, \"Cannot trade tokens to yourself\");\n        uint tokenBalance = getBalance(msg.sender, 0);\n        require(tokenBalance >= amount, \"Insufficient token balance\");\n        _safeTransferFrom(msg.sender, payTo, 0, amount, \"\");\n    }\n\n\n}\n\n",
  "sourcePath": "/Users/chuan/Documents/Parking/Parking-contract/contracts/PaySystem.sol",
  "compiler": {
    "name": "solc",
    "version": "0.8.19+commit.7dd6d404.Emscripten.clang"
  },
  "schemaVersion": "3.4.13",
  "updatedAt": "2023-04-03T18:53:56.881Z",
  "networkType": "ethereum",
  "devdoc": {
    "events": {
      "ApprovalForAll(address,address,bool)": {
        "details": "Emitted when `account` grants or revokes permission to `operator` to transfer their tokens, according to `approved`."
      },
      "TransferBatch(address,address,address,uint256[],uint256[])": {
        "details": "Equivalent to multiple {TransferSingle} events, where `operator`, `from` and `to` are the same for all transfers."
      },
      "TransferSingle(address,address,address,uint256,uint256)": {
        "details": "Emitted when `value` tokens of token type `id` are transferred from `from` to `to` by `operator`."
      },
      "URI(string,uint256)": {
        "details": "Emitted when the URI for token type `id` changes to `value`, if it is a non-programmatic URI. If an {URI} event was emitted for `id`, the standard https://eips.ethereum.org/EIPS/eip-1155#metadata-extensions[guarantees] that `value` will equal the value returned by {IERC1155MetadataURI-uri}."
      }
    },
    "kind": "dev",
    "methods": {
      "balanceOf(address,uint256)": {
        "details": "See {IERC1155-balanceOf}. Requirements: - `account` cannot be the zero address."
      },
      "balanceOfBatch(address[],uint256[])": {
        "details": "See {IERC1155-balanceOfBatch}. Requirements: - `accounts` and `ids` must have the same length."
      },
      "isApprovedForAll(address,address)": {
        "details": "See {IERC1155-isApprovedForAll}."
      },
      "owner()": {
        "details": "Returns the address of the current owner."
      },
      "renounceOwnership()": {
        "details": "Leaves the contract without owner. It will not be possible to call `onlyOwner` functions anymore. Can only be called by the current owner. NOTE: Renouncing ownership will leave the contract without an owner, thereby removing any functionality that is only available to the owner."
      },
      "safeBatchTransferFrom(address,address,uint256[],uint256[],bytes)": {
        "details": "See {IERC1155-safeBatchTransferFrom}."
      },
      "safeTransferFrom(address,address,uint256,uint256,bytes)": {
        "details": "See {IERC1155-safeTransferFrom}."
      },
      "setApprovalForAll(address,bool)": {
        "details": "See {IERC1155-setApprovalForAll}."
      },
      "supportsInterface(bytes4)": {
        "details": "See {IERC165-supportsInterface}."
      },
      "transferOwnership(address)": {
        "details": "Transfers ownership of the contract to a new account (`newOwner`). Can only be called by the current owner."
      },
      "uri(uint256)": {
        "details": "See {IERC1155MetadataURI-uri}. This implementation returns the same URI for *all* token types. It relies on the token type ID substitution mechanism https://eips.ethereum.org/EIPS/eip-1155#metadata[defined in the EIP]. Clients calling this function must replace the `\\{id\\}` substring with the actual token type ID."
      }
    },
    "version": 1
  },
  "userdoc": {
    "kind": "user",
    "methods": {},
    "version": 1
  }
}